:020000040800F2
:1000000008110020B5190008B9030008C50300084D
:10001000CD030008D5030008DD0300080000000040
:10002000000000000000000000000000E5030008E0
:10003000F103000800000000FD03000809040008A7
:10004000151A0008151A0008151A0008151A0008D4
:10005000151A0008151A0008151A0008151A0008C4
:10006000151A0008151A0008151A0008151A0008B4
:10007000151A0008151A0008151A0008151A0008A4
:10008000151A0008151A0008151A0008151A000894
:1000900019040008151A0008151A0008151A000896
:1000A000151A0008151A0008151A0008151A000874
:1000B000151A0008151A0008151A0008151A000864
:1000C000151A0008151A0008151A0008151A000854
:1000D000151A0008151A0008151A0008151A000844
:1000E000151A0008151A0008151A0008000000006B
:1000F0000000000000000000000000000000000000
:1001000000000000000000005FF808F180B590B02A
:1001100000AF78600023FB630023BB637B681B6830
:1001200003F00103002B00F0BD80704A6F4BDB69C8
:1001300043F08053D3616D4BDB6903F08053FB6068
:10014000FB686B4A6A4B1B6843F48073136000F0D2
:1001500013F9F86308E000F00FF90246FB6BD31ABD
:10016000642B01D90323BCE0614B1B6803F480734B
:10017000002BF0D05D4B1B6A03F44073BB63BB6B79
:10018000002B00F086807B685B6803F44072BB6BD9
:100190009A427ED0554B1B6A23F44073BB634FF4E5
:1001A00080333B633B6B93FAA3F3FB61FB69B3FAC8
:1001B00083F39B001A464F4B13441A4601231360E6
:1001C0004FF480337B627B6A93FAA3F33B623B6A12
:1001D000B3FA83F39B001A46464B13441A46002396
:1001E0001360424ABB6B1362BB6B03F00103002B2D
:1001F0004FD000F0C1F8F8630AE000F0BDF8024605
:10020000FB6BD31A41F28832934201D9032368E091
:1002100002237B637B6B93FAA3F3BB61BB69B3FAE5
:1002200083F35BB243F040035BB2DBB25B09DBB24A
:10023000012B02D12D4B1B6816E00223FB62FB6AE7
:1002400093FAA3F37B617B69B3FA83F35BB243F068
:1002500040035BB2DBB25B09DBB2022B02D1234B62
:100260001B6A01E0214B5B6A0222BA62BA6A92FA07
:10027000A2F23A613A69B2FA82F252B242F0400214
:1002800052B2D2B202F01F02D34003F00103002B9E
:10029000B3D01649154B1B6A23F440727B685B6828
:1002A00013430B627B681B6803F00203002B08D02A
:1002B0000E490E4B5B6823F440427B689B681343F6
:1002C0004B607B681B6803F01003002B08D00749C4
:1002D000064B5B6823F480027B68DB6813434B604A
:1002E000002318464037BD4680BD00BF00100240C5
:1002F000007000400004424280B500AF084A084B3D
:100300001B6843F010031360032000F055F9002030
:1003100000F008F804F04EFD0023184680BD00BF31
:100320000020024080B582B000AF786001F038FB59
:100330000246094BA3FB02239B09184600F072F901
:10034000002279684FF0FF3000F042F90023184690
:100350000837BD4680BD00BFD34D621080B400AFEA
:10036000044B1B680133034A136000BFBD4680BCC9
:10037000704700BF7801002080B400AF024B1B68BB
:100380001846BD4680BC70477801002080B584B017
:1003900000AF78600023FB60FFF7EEFFF86000BF5E
:1003A000FFF7EAFF0246FB68D21A7B689A42F7D34E
:1003B00000BF1037BD4680BD80B400AF00BFBD4652
:1003C00080BC704780B400AFFEE700BF80B400AFD0
:1003D000FEE700BF80B400AFFEE700BF80B400AF0F
:1003E000FEE700BF80B400AF00BFBD4680BC7047D1
:1003F00080B400AF00BFBD4680BC704780B400AF82
:1004000000BFBD4680BC704780B500AFFFF7A6FFB8
:1004100000F030F900BF80BD80B500AF024801F0A8
:10042000FDFB00BF80BD00BF4406002080B485B046
:1004300000AF78607B6803F00703FB600C4BDB6860
:10044000BB60BA684FF6FF031340BB60FB681A023B
:10045000BB68134343F0BF6343F40033BB60044AFB
:10046000BB68D36000BF1437BD4680BC704700BF77
:1004700000ED00E080B400AF044BDB6803F4E06300
:100480001B0A1846BD4680BC704700BF00ED00E067
:1004900080B483B000AF0346FB71084997F9073079
:1004A0005B09FA7902F01F02012000FA02F241F81A
:1004B000232000BF0C37BD4680BC704700E100E040
:1004C00080B483B000AF03463960FB7197F9073001
:1004D000002B0BDA0D49FB7903F00F03043B3A685C
:1004E000D2B21201D2B20B441A7609E0084997F948
:1004F00007303A68D2B21201D2B20B4483F800231B
:1005000000BF0C37BD4680BC704700BF00ED00E067
:1005100000E100E080B489B000AFF860B9607A60B3
:10052000FB6803F00703FB61FB69C3F10703042BBE
:1005300028BF0423BB61FB690433062B02D9FB6986
:10054000033B00E000237B610122BB6902FA03F355
:100550005A1EBB681A407B699A4001217B6901FAE7
:1005600003F3591E7B680B40134318462437BD46DE
:1005700080BC704780B582B000AF78607B68013B7B
:10058000B3F1807F01D301230FE00A4A7B68013B6E
:1005900053600F214FF0FF30FFF792FF054B002211
:1005A0009A60044B07221A60002318460837BD469C
:1005B00080BD00BF10E000E080B582B000AF786081
:1005C0007868FFF733FF00BF0837BD4680BD00BF26
:1005D00080B586B000AF0346B9607A60FB73002334
:1005E0007B61FFF747FF78617A68B9687869FFF740
:1005F00091FF024697F90F3011461846FFF760FF4A
:1006000000BF1837BD4680BD80B582B000AF03463D
:10061000FB7197F907301846FFF73AFF00BF08371C
:10062000BD4680BD80B582B000AF78607868FFF7C6
:10063000A1FF034618460837BD4680BD80B483B08D
:1006400000AF78607B68042B06D1094A084B1B6811
:1006500043F00403136005E0054A054B1B6823F0D3
:100660000403136000BF0C37BD4680BC704700BF59
:1006700010E000E080B500AF00F002F800BF80BDE0
:1006800080B400AF00BFBD4680BC704780B400AFEF
:10069000154A154B1B6843F0010313601249124BB6
:1006A0005A68124B13404B600F4A0F4B1B6823F0E4
:1006B000847323F4803313600B4A0B4B1B6823F4C1
:1006C00080231360084A084B5B6823F4FE035360E1
:1006D000054B4FF41F029A60054B4FF000629A6081
:1006E00000BFBD4680BC7047001002400000FFF80C
:1006F00000ED00E090B5E5B000AF3B1D18600023B1
:10070000C7F88C313B1D1B681B6803F00103002BED
:1007100000F07581B84B5B6803F00C03042B0BD021
:10072000B54B5B6803F00C03082B5FD1B24B5B68E1
:1007300003F48033002B59D04FF40033C7F8CC308A
:10074000D7F8CC3093FAA3F3C7F8C830D7F8C8303D
:10075000B3FA83F35BB243F020035BB2DBB25B0915
:10076000DBB2012B02D1A44B1B681BE04FF400331A
:10077000C7F87031D7F8703193FAA3F3C7F8C430D3
:10078000D7F8C430B3FA83F35BB243F020035BB213
:10079000DBB25B09DBB2022B02D1974B1B6A01E093
:1007A000954B5B6A4FF40032C7F86C21D7F86C2187
:1007B00092FAA2F2C7F8C020D7F8C020B2FA82F2AB
:1007C00052B242F0200252B2D2B202F01F02D34023
:1007D00003F00103002B00F011813B1D1B685B68D7
:1007E000002B40F00B81012300F09DBE3B1D1B68D8
:1007F0005B68B3F5803F06D17F4A7F4B1B6843F4AB
:100800008033136030E03B1D1B685B68002B0CD10C
:10081000794A794B1B6823F480331360764A764B10
:100820001B6823F4802313601EE03B1D1B685B687C
:10083000B3F5A02F0CD1704A6F4B1B6843F4802393
:1008400013606D4A6C4B1B6843F4803313600BE0FC
:10085000694A694B1B6823F480331360664A664B10
:100860001B6823F4802313603B1D1B685B68002B0F
:1008700060D0FFF781FDC7F88C010AE0FFF77CFD2F
:100880000246D7F88C31D31A642B02D9032300F027
:100890004ABE4FF40033C7F86831D7F8683193FA8D
:1008A000A3F3C7F8BC30D7F8BC30B3FA83F35BB21C
:1008B00043F020035BB2DBB25B09DBB2012B02D158
:1008C0004D4B1B681BE04FF40033C7F88831D7F855
:1008D000883193FAA3F3C7F8B830D7F8B830B3FA31
:1008E00083F35BB243F020035BB2DBB25B09DBB2A4
:1008F000022B02D1404B1B6A01E03F4B5B6A4FF475
:100900000032C7F88421D7F8842192FAA2F2C7F8FE
:10091000B420D7F8B420B2FA82F252B242F02002E8
:1009200052B2D2B202F01F02D34003F00103002BF7
:10093000A4D064E0FFF720FDC7F88C010AE0FFF7C0
:100940001BFD0246D7F88C31D31A642B02D903233E
:1009500000F0E9BD4FF40033C7F88031D7F880319B
:1009600093FAA3F3C7F8B030D7F8B030B3FA83F3F3
:100970005BB243F020035BB2DBB25B09DBB2012B5D
:1009800002D11D4B1B681BE04FF40033C7F87C31CC
:10099000D7F87C3193FAA3F3C7F8AC30D7F8AC3072
:1009A000B3FA83F35BB243F020035BB2DBB25B09C3
:1009B000DBB2022B02D1104B1B6A01E00E4B5B6ACB
:1009C0004FF40032C7F87821D7F8782192FAA2F2D2
:1009D000C7F8A820D7F8A820B2FA82F252B242F0A3
:1009E000200252B2D2B202F01F02D34003F0010340
:1009F000002BA4D103E000BF0010024000BF3B1D4C
:100A00001B681B6803F00203002B00F09881BC4BAD
:100A10005B6803F00C03002B0BD0B94B5B6803F051
:100A20000C03082B74D1B64B5B6803F48033002BA6
:100A30006ED10223C7F87431D7F8743193FAA3F357
:100A4000C7F8A430D7F8A430B3FA83F35BB243F00D
:100A500020035BB2DBB25B09DBB2012B02D1A84BF6
:100A60001B681AE00223C7F84031D7F8403193FAE7
:100A7000A3F3C7F8A030D7F8A030B3FA83F35BB282
:100A800043F020035BB2DBB25B09DBB2022B02D185
:100A90009B4B1B6A01E09A4B5B6A0222C7F83C2120
:100AA000D7F83C2192FAA2F2C7F89C20D7F89C20F4
:100AB000B2FA82F252B242F0200252B2D2B202F044
:100AC0001F02D34003F00103002B07D03B1D1B681E
:100AD0001B69012B02D0012300F025BD8848884BFB
:100AE0001B6823F0F8023B1D1B685969F823C7F8FF
:100AF0003831D7F8383193FAA3F3C7F89830D7F8DC
:100B00009830B3FA83F301FA03F31343036016E159
:100B10003B1D1B681B69002B00F094800123C7F864
:100B20003431D7F8343193FAA3F3C7F89430D7F8B7
:100B30009430B3FA83F39B0003F1844303F58403F9
:100B40001A4601231360FFF717FCC7F88C010AE06F
:100B5000FFF712FC0246D7F88C31D31A022B02D9C8
:100B6000032300F0E0BC0223C7F86431D7F86431F6
:100B700093FAA3F207F190031A6007F190031B6840
:100B8000B3FA83F35BB243F020035BB2DBB25B09E1
:100B9000DBB2012B02D15A4B1B681CE00223C7F8C1
:100BA0006031D7F8603193FAA3F207F18C031A6031
:100BB00007F18C031B68B3FA83F35BB243F02003A5
:100BC0005BB2DBB25B09DBB2022B02D14C4B1B6A7E
:100BD00001E04B4B5B6A0222C7F85C21D7F85C212D
:100BE00092FAA2F107F18802116007F188021268F7
:100BF000B2FA82F252B242F0200252B2D2B202F003
:100C00001F02D34003F00103002BA1D03C4C3C4B0E
:100C10001B6823F0F8023B1D1B685969F823C7F8CD
:100C20005831D7F8583193FAA3F007F184031860CC
:100C300007F184031B68B3FA83F301FA03F3134348
:100C400023607CE00123C7F85431D7F8543193FA7C
:100C5000A3F207F180031A6007F180031B68B3FA5F
:100C600083F39B0003F1844303F584031A460023B6
:100C70001360FFF781FBC7F88C010AE0FFF77CFBEC
:100C80000246D7F88C31D31A022B02D9032300F085
:100C90004ABC0223C7F85031D7F8503193FAA3F277
:100CA00007F17C031A6007F17C031B68B3FA83F336
:100CB0005BB243F020035BB2DBB25B09DBB2012B1A
:100CC00002D10F4B1B681FE00223C7F84C31D7F845
:100CD0004C3193FAA3F207F178031A6007F1780315
:100CE0001B68B3FA83F35BB243F020035BB2DBB261
:100CF0005B09DBB2022B05D1014B1B6A04E000BF8C
:100D000000100240B74B5B6A0222C7F84821D7F8AF
:100D1000482192FAA2F107F17402116007F17402FE
:100D20001268B2FA82F252B242F0200252B2D2B249
:100D300002F01F02D34003F00103002B9ED13B1DA4
:100D40001B681B6803F00803002B00F0F9803B1DB3
:100D50001B689B69002B7BD00123C7F84431D7F86F
:100D6000443193FAA3F207F170031A6007F170039C
:100D70001B68B3FA83F39B001A469B4B13441A4635
:100D800001231360FFF7F8FAC7F88C0109E0FFF7B9
:100D9000F3FA0246D7F88C31D31A022B01D9032378
:100DA000C1E30223C7F83031D7F8303193FAA3F208
:100DB00007F16C031A6007F16C031B68B3FA83F345
:100DC0005BB243F060035BB2DBB25B09DBB2012BC9
:100DD00002D1844B1B681CE00223C7F82C31D7F8E2
:100DE0002C3193FAA3F207F168031A6007F1680344
:100DF0001B68B3FA83F35BB243F060035BB2DBB210
:100E00005B09DBB2022B02D1764B1B6A01E0754B0A
:100E10005B6A0222C7F82821D7F8282192FAA2F1AA
:100E200007F16402116007F164021268B2FA82F2FB
:100E300052B242F0600252B2D2B202F01F02D3406C
:100E400003F00103002BA2D00120FFF79FFA77E007
:100E50000123C7F82431D7F8243193FAA3F207F11C
:100E600060031A6007F160031B68B3FA83F39B0009
:100E70001A465D4B13441A4600231360FFF77CFAB1
:100E8000C7F88C0109E0FFF777FA0246D7F88C31F2
:100E9000D31A022B01D9032345E30223C7F82031DB
:100EA000D7F8203193FAA3F207F15C031A6007F137
:100EB0005C031B68B3FA83F35BB243F060035BB27D
:100EC000DBB25B09DBB2012B02D1464B1B681CE095
:100ED0000223C7F81C31D7F81C3193FAA3F207F1AB
:100EE00058031A6007F158031B68B3FA83F35BB227
:100EF00043F060035BB2DBB25B09DBB2022B02D1D1
:100F0000384B1B6A01E0374B5B6A0222C7F8182195
:100F1000D7F8182192FAA2F107F15402116007F1F3
:100F200054021268B2FA82F252B242F0600252B235
:100F3000D2B202F01F02D34003F00103002BA2D172
:100F40003B1D1B681B6803F00403002B00F03C8171
:100F5000244A244BDB6943F08053D361214BDB6986
:100F600003F0805207F108031A6007F108031B68B9
:100F70001E4A1E4B1B6843F480731360FFF7FCF995
:100F8000C7F88C0109E0FFF7F7F90246D7F88C3172
:100F9000D31A642B01D90323C5E2144B1B6803F455
:100FA0008073002BEFD03B1D1B68DB68012B06D143
:100FB0000C4A0C4B1B6A43F00103136236E03B1DE5
:100FC0001B68DB68002B13D1064A064B1B6A23F013
:100FD00001031362034A034B1B6A23F004031362E9
:100FE00024E000BF00100240800442420070004034
:100FF0003B1D1B68DB68052B0CD1AC4AAB4B1B6A55
:1010000043F004031362A94AA84B1B6A43F001038F
:1010100013620BE0A54AA54B1B6A23F00103136280
:10102000A24AA24B1B6A23F0040313623B1D1B68F8
:10103000DB68002B64D0FFF79FF9C7F88C010BE049
:10104000FFF79AF90246D7F88C31D31A41F2883269
:10105000934201D9032366E20223C7F81431D7F87B
:10106000143193FAA3F207F150031A6007F1500309
:101070001B68B3FA83F35BB243F040035BB2DBB2AD
:101080005B09DBB2012B02D1884B1B681CE00223F9
:10109000C7F81031D7F8103193FAA3F207F14C03D7
:1010A0001A6007F14C031B68B3FA83F35BB243F099
:1010B00040035BB2DBB25B09DBB2022B02D17B4B9C
:1010C0001B6A01E0794B5B6A0222C7F80C21D7F852
:1010D0000C2192FAA2F107F14802116007F14802CF
:1010E0001268B2FA82F252B242F0400252B2D2B266
:1010F00002F01F02D34003F00103002BA0D063E0F5
:10110000FFF73AF9C7F88C010BE0FFF735F9024613
:10111000D7F88C31D31A41F28832934201D9032394
:1011200001E20223C7F80831D7F8083193FAA3F295
:1011300007F144031A6007F144031B68B3FA83F311
:101140005BB243F040035BB2DBB25B09DBB2012B65
:1011500002D1564B1B681CE00223C7F80431D7F8B4
:10116000043193FAA3F207F140031A6007F1400338
:101170001B68B3FA83F35BB243F040035BB2DBB2AC
:101180005B09DBB2022B02D1484B1B6A01E0474BE3
:101190005B6A0222C7F80021D7F8002192FAA2F177
:1011A00007F13C02116007F13C021268B2FA82F2C8
:1011B00052B242F0400252B2D2B202F01F02D34009
:1011C00003F00103002BA0D13B1D1B68DB69002B42
:1011D00000F0A881354B5B6803F00C03082B00F08E
:1011E0009F813B1D1B68DB69022B40F01B814FF088
:1011F0008073C7F8FC30D7F8FC3093FAA3F207F1FC
:1012000038031A6007F138031B68B3FA83F39B00B5
:1012100003F1844303F584031A4600231360FFF7A8
:10122000ABF8C7F88C0109E0FFF7A6F80246D7F83B
:101230008C31D31A022B01D9032374E14FF00073D0
:10124000C7F8F830D7F8F83093FAA3F207F134036F
:101250001A6007F134031B68B3FA83F35BB243F0FF
:1012600020035BB2DBB25B09DBB2012B02D10F4B77
:101270001B681FE04FF00073C7F8F430D7F8F43064
:1012800093FAA3F207F130031A6007F130031B68E9
:10129000B3FA83F35BB243F020035BB2DBB25B09CA
:1012A000DBB2022B04D1014B1B6A03E000100240A9
:1012B0009F4B5B6A4FF00072C7F8F020D7F8F02020
:1012C00092FAA2F107F12C02116007F12C021268C8
:1012D000B2FA82F252B242F0200252B2D2B202F01C
:1012E0001F02D34003F00103002B9DD13B1D1B685F
:1012F0001B6AB3F5803F09D18D498D4B5B6823F4A0
:1013000000323B1D1B689B6813434B608848884B29
:101310005B6823F474123B1D1B68196A3B1D1B6834
:101320005B6A0B43134343604FF08073C7F8EC30A4
:10133000D7F8EC3093FAA3F207F128031A6007F10B
:1013400028031B68B3FA83F39B0003F1844303F57E
:1013500084031A4601231360FFF70EF8C7F88C01C7
:1013600009E0FFF709F80246D7F88C31D31A022BAF
:1013700001D90323D7E04FF00073C7F8E830D7F85E
:10138000E83093FAA3F207F124031A6007F124036B
:101390001B68B3FA83F35BB243F020035BB2DBB2AA
:1013A0005B09DBB2012B02D1614B1B681DE04FF0E2
:1013B0000073C7F8E430D7F8E43093FAA3F207F1EA
:1013C00020031A6007F120031B68B3FA83F35BB2B2
:1013D00043F020035BB2DBB25B09DBB2022B02D12C
:1013E000534B1B6A01E0524B5B6A4FF00072C7F827
:1013F000E020D7F8E02092FAA2F107F11C02116078
:1014000007F11C021268B2FA82F252B242F02002D4
:1014100052B2D2B202F01F02D34003F00103002BFC
:101420009FD07FE04FF08073C7F8DC30D7F8DC3016
:1014300093FAA3F207F118031A6007F118031B6867
:10144000B3FA83F39B0003F1844303F584031A4644
:1014500000231360FEF790FFC7F88C0109E0FEF748
:101460008BFF0246D7F88C31D31A022B01D9032304
:1014700059E04FF00073C7F8D830D7F8D83093FA56
:10148000A3F207F114031A6007F114031B68B3FAFF
:1014900083F35BB243F020035BB2DBB25B09DBB2E8
:1014A000012B02D1224B1B681DE04FF00073C7F8DF
:1014B000D430D7F8D43093FAA3F207F110031A60AE
:1014C00007F110031B68B3FA83F35BB243F0200308
:1014D0005BB2DBB25B09DBB2022B02D1144B1B6A9D
:1014E00001E0134B5B6A4FF00072C7F8D020D7F8C9
:1014F000D02092FAA2F107F10C02116007F10C0260
:101500001268B2FA82F252B242F0200252B2D2B261
:1015100002F01F02D34003F00103002B9FD101E032
:10152000012300E00023184607F5CA77BD4690BDA9
:101530000010024080B598B000AF78603960002399
:10154000FB65A54B1B6803F007023B689A4210D26B
:10155000A149A14B1B6823F007023B6813430B60B2
:101560009D4B1B6803F007023B689A4201D00123A0
:101570008FE17B681B6803F00203002B08D09749BA
:10158000964B5B6823F0F0027B689B6813434B60CB
:101590007B681B6803F00103002B00F027817B6848
:1015A0005B68012B46D14FF400337B637B6B93FA6E
:1015B000A3F33B633B6BB3FA83F35BB243F02003CB
:1015C0005BB2DBB25B09DBB2012B02D1834B1B6840
:1015D00017E04FF40033BB65BB6D93FAA3F3FB62D6
:1015E000FB6AB3FA83F35BB243F020035BB2DBB276
:1015F0005B09DBB2022B02D1784B1B6A01E0774B0F
:101600005B6A4FF400327A657A6D92FAA2F2BA629E
:10161000BA6AB2FA82F252B242F0200252B2D2B2A6
:1016200002F01F02D34003F00103002B40F08F8033
:1016300001232EE17B685B68022B45D14FF00073DC
:101640003B653B6D93FAA3F37B627B6AB3FA83F34A
:101650005BB243F020035BB2DBB25B09DBB2012B70
:1016600002D15E4B1B6817E04FF00073FB64FB6C0C
:1016700093FAA3F33B623B6AB3FA83F35BB243F0A2
:1016800020035BB2DBB25B09DBB2022B02D1534B0E
:101690001B6A01E0514B5B6A4FF00072BA64BA6C8E
:1016A00092FAA2F2FA61FA69B2FA82F252B242F006
:1016B000200252B2D2B202F01F02D34003F0010363
:1016C000002B44D10123E4E002237B647B6C93FA7A
:1016D000A3F3BB61BB69B3FA83F35BB243F02003AE
:1016E0005BB2DBB25B09DBB2012B02D13B4B1B6867
:1016F00016E002233B643B6C93FAA3F37B617B69A6
:10170000B3FA83F35BB243F020035BB2DBB25B0955
:10171000DBB2022B02D1314B1B6A01E02F4B5B6A1B
:101720000222FA63FA6B92FAA2F23A613A69B2FAC9
:1017300082F252B242F0200252B2D2B202F01F0242
:10174000D34003F00103002B01D10123A1E0234981
:10175000224B5B6823F003027B685B6813434B609A
:10176000FEF70AFEF8657B685B68012B12D10AE080
:10177000FEF702FE0246FB6DD31A41F28832934215
:1017800001D9032385E0154B5B6803F00C03042BA0
:10179000EED12BE07B685B68022B21D10AE0FEF7DB
:1017A000EBFD0246FB6DD31A41F28832934201D918
:1017B00003236EE0094B5B6803F00C03082BEED1AA
:1017C00014E0FEF7D9FD0246FB6DD31A41F28832D0
:1017D000934205D903235CE0002002400010024040
:1017E0002E4B5B6803F00C03002BEAD12C4B1B68DB
:1017F00003F007023B689A4210D92949284B1B681D
:1018000023F007023B6813430B60254B1B6803F072
:1018100007023B689A4201D001233AE07B681B68CB
:1018200003F00403002B08D01C491C4B5B6823F415
:10183000E0627B68DB6813434B607B681B6803F0E6
:101840000803002B09D01549144B5B6823F4605240
:101850007B681B69DB0013434B6000F027F80146EF
:101860000E4B5B6803F0F002F023BB63BB6B93FA93
:10187000A3F3FB60FB68B3FA83F322FA03F3094A8C
:10188000D35C21FA03F3084A13600020FEF74AFDF7
:10189000002318466037BD4680BD00BF00100240DF
:1018A00000200240706100080000002090B48EB05B
:1018B00000AF364B3C1D186859689A68DB680FC446
:1018C000334A3B4612881A800023FB620023BB6226
:1018D00000237B6300237B6200233B632D4B5B680B
:1018E000FB62FB6A03F00C03042B02D0082B03D02D
:1018F00043E0294B3B6343E0FB6A03F470124FF46F
:101900007013FB61FB6993FAA3F3BB61BB69B3FA84
:1019100083F322FA03F307F13802134413F8343C3B
:101920007B62FB6A03F48033002B1ED0194B5B688B
:1019300003F400324FF400333B623B6A93FAA3F3A3
:101940007B617B69B3FA83F322FA03F307F1380270
:10195000134413F8383CBB620F4ABB6AB2FBF3F383
:101960007A6A02FB03F37B6304E07B6A0B4A02FBA7
:1019700003F37B637B6B3B6302E0074B3B6300BF7E
:101980003B6B18463837BD4690BC704788610008ED
:10199000986100080010024000127A0000093D0022
:1019A00080B400AF024B1B681846BD4680BC704730
:1019B0000000002080B582B000AF114B7B60114B5E
:1019C0003B6007E03B681A1D3A607A68111D796038
:1019D00012681A603B680C4A9342F3D30B480C49D7
:1019E0004FF000028842B8BF40F8042BFADBFEF744
:1019F0004DFE01F091F900BF0837BD4680BD00BF24
:101A0000A862000800000020780100207801002072
:101A1000080D002080B400AFFEE700BFF0B58BB02A
:101A200006AF78600023FB607B68002B01D10123A7
:101A3000CAE07B6893F8E933DBB2002B06D17B6800
:101A4000002283F8E823786802F07AFE7B6803229C
:101A500083F8E9237B681B68184601F001FB7B686B
:101A60001B683B607E686D4606F110040FCC0FC505
:101A700023682B60331D0ECB386801F0C7FA7B68F2
:101A80001B680021184601F007FB0023FB6037E0CC
:101A90007A68FB685B011344293301221A70FB68E2
:101AA000D9B27A68FB685B01134428330A461A707E
:101AB000FB6899B27A68FB685B01134434330A46C9
:101AC0001A807A68FB685B0113442B3300221A707A
:101AD0007A68FB685B011344383300221A607A6825
:101AE000FB685B0113443C3300221A607A68FB6890
:101AF00002335B01134400221A60FB680133FB6070
:101B0000FB680E2BC4D90023FB603CE07A68FB68BD
:101B10005B01134403F2092300221A70FB68D9B257
:101B20007A68FB685B01134403F502730A461A7076
:101B3000FB6899B27A68FB685B01134434330A4648
:101B40001A807A68FB685B01134403F20B230022BE
:101B50001A707A68FB685B01134403F50673002270
:101B60001A607A68FB685B01134403F5077300226F
:101B70001A607A68FB6811335B01134400221A6013
:101B8000FB680133FB60FB680E2BBFD97B681B68C9
:101B90003B607E686D4606F110040FCC0FC52368CC
:101BA0002B60331D0ECB386801F082FA7B6800226F
:101BB00083F824207B68012283F8E9237B681B6873
:101BC000184602F07BFA002318461437BD46F0BDD4
:101BD00080B582B000AF78607B6893F8E833012B62
:101BE00001D1022316E07B68012283F8E82301215A
:101BF000786803F0D3F87B681B68184602F054FA43
:101C00007B681B68184601F011FA7B68002283F894
:101C1000E823002318460837BD4680BD80B584B050
:101C200000AF78600023FB607B681B68184602F0F9
:101C30004FFA034603F40043002B02D0786800F00B
:101C4000F1FA7B681B68184602F042FA034603F477
:101C50008063002B12D07B681B687A681268B2F828
:101C6000442092B222F4806292B2A3F844207868B1
:101C700002F0DCFD0021786800F0C8F87B681B6882
:101C8000184602F025FA034603F48043002B0BD0DC
:101C90007B681B687A681268B2F8442092B222F41A
:101CA000804292B2A3F844207B681B68184602F079
:101CB0000FFA034603F40053002B0BD07B681B681C
:101CC0007A681268B2F8442092B222F4005292B2BA
:101CD000A3F844207B681B68184602F0F9F9034614
:101CE00003F48053002B23D07B681B687A6812684A
:101CF000B2F8402092B222F0040292B2A3F840203F
:101D00004FF43D43FB607B681B68FA6892B2A3F80E
:101D10004020786802F0C6FD7B681B687A6812680C
:101D2000B2F8442092B222F4805292B2A3F8442036
:101D30007B681B68184602F0CBF9034603F4006386
:101D4000002B30D07B681B687A681268B2F8442098
:101D500092B222F4006292B2A3F844207B681B681E
:101D60007A681268B2F8402092B242F0080292B249
:101D7000A3F840207B681B687A681268B2F840209C
:101D800092B242F0040292B2A3F840207B681B6832
:101D9000184602F09DF9034603F48053002B02D14C
:101DA000786802F065FD7B681B68184602F090F9C0
:101DB000034603F40073002B0ED07B681B687A681F
:101DC0001268B2F8442092B222F4007292B2A3F8E0
:101DD0004420786802F01CFD7B681B68184602F0FE
:101DE00077F9034603F48073002B0BD07B681B68E4
:101DF0007A681268B2F8442092B222F4807292B2E9
:101E0000A3F8442000BF1037BD4680BD80B582B026
:101E100000AF78600B46FB707B6893F8E833012BCA
:101E200001D1022313E07B68012283F8E8237B6859
:101E3000FA7883F824207B681B68FA7811461846E4
:101E400002F01EF97B68002283F8E823002318467D
:101E50000837BD4680BD00BF80B584B000AF786054
:101E6000084611461A460346FB700B463B80134654
:101E7000BB700023FB720023FB6097F90330002B3B
:101E800008DAFB7803F07F035B0128337A68134498
:101E9000FB6008E0FB7803F07F035B0103F502734E
:101EA0007A681344FB60FB7803F07F03DAB2FB68C7
:101EB0001A7097F90330DBB2DB09DBB21A46FB6814
:101EC0005A703A88FB681A61FB68BA78DA707B68E6
:101ED00093F8E833012B01D102230EE07B68012245
:101EE00083F8E8237B681B68F968184601F000F95D
:101EF0007B68002283F8E823FB7A18461037BD463A
:101F000080BD00BF80B584B000AF78600B46FB7029
:101F10000023FB6097F90330002B08DAFB7803F00D
:101F20007F035B0128337A681344FB6008E0FB7889
:101F300003F07F035B0103F502737A681344FB60CF
:101F4000FB7803F07F03DAB2FB681A7097F903306D
:101F5000DBB2DB09DBB21A46FB685A707B6893F888
:101F6000E833012B01D102230EE07B68012283F8C4
:101F7000E8237B681B68F968184601F081FB7B68E1
:101F8000002283F8E823002318461037BD4680BDA1
:101F900080B586B000AFF8607A603B600B46FB729C
:101FA00000237B61FB7A03F07F035B0103F502737F
:101FB000FA6813447B617B697A685A617B693A6885
:101FC0009A617B690022DA617B6900225A70FB7A90
:101FD00003F07F03DAB27B691A70FB6893F8E83389
:101FE000012B01D102231AE0FB68012283F8E823C8
:101FF000FB7A03F07F03002B06D1FB681B6879692D
:10200000184601F0C5FC05E0FB681B6879691846B5
:1020100001F0BEFCFB68002283F8E8230023184689
:102020001837BD4680BD00BF80B483B000AF786074
:102030000B46FB70FB7803F07F037A6811335B017A
:10204000134404331B689BB218460C37BD4680BC52
:10205000704700BF80B586B000AFF8607A603B6023
:102060000B46FB7200237B61FB7A03F07F035B016D
:102070002833FA6813447B617B697A685A617B690B
:102080003A689A617B690022DA617B6901225A70A1
:10209000FB7A03F07F03DAB27B691A70FB6893F86E
:1020A000E833012B01D102231AE0FB68012283F8F7
:1020B000E823FB7A03F07F03002B06D1FB681B6843
:1020C0007969184601F064FC05E0FB681B687969D2
:1020D000184601F05DFCFB68002283F8E82300232A
:1020E00018461837BD4680BD80B584B000AF786013
:1020F0000B46FB700023FB6097F90330002B08DAD6
:10210000FB7803F07F035B0128337A681344FB609C
:1021100006E0FB785B0103F502737A681344FB6009
:10212000FB6801229A70FB7803F07F03DAB2FB6848
:102130001A7097F90330DBB2DB09DBB21A46FB6891
:102140005A707B6893F8E833012B01D102231CE01D
:102150007B68012283F8E8237B681B68F9681846CE
:1021600001F0A4FEFB7803F07F03002B08D17B680D
:102170001A687B6803F57B731946104601F0BAFFB5
:102180007B68002283F8E823002318461037BD46F9
:1021900080BD00BF80B584B000AF78600B46FB7097
:1021A0000023FB6097F90330002B08DAFB7803F07B
:1021B0007F035B0128337A681344FB6006E0FB78F9
:1021C0005B0103F502737A681344FB60FB6800222D
:1021D0009A70FB7803F07F03DAB2FB681A7097F904
:1021E0000330DBB2DB09DBB21A46FB685A707B684E
:1021F00093F8E833012B01D102230EE07B68012222
:1022000083F8E8237B681B68F968184601F0AEFE86
:102210007B68002283F8E823002318461037BD4668
:1022200080BD00BF90B589B000AF78600023BB616E
:102230000023FB830023FB750023FB810023BB816C
:1022400013E3FB899BB2DBB203F00F03FB75FB7D4D
:10225000002B40F02E81FB899BB203F01003002B72
:102260004ED17B681A687B681B681B889BB223F47D
:10227000E14323F070039BB213807B682833BB617A
:102280007B681B68B3F850309BB21A46BB691B7859
:10229000DB00134402335B001A467B681B6813445F
:1022A00003F580631B689BB2C3F30902BB69DA6163
:1022B000BB695A69BB69DB691A44BB695A61002171
:1022C000786802F08DFA7B6893F82430DBB2002B3B
:1022D00000F0CB82BB699B69002B40F0C6827B6813
:1022E0001B687A6892F82420D2B262F07F02D2B2E0
:1022F00092B2A3F84C207B68002283F82420B4E239
:102300007B6803F50273BB617B681B681B889BB20B
:10231000BB81BB899BB203F40063002B32D07B6886
:102320001B68B3F850309BB21A46BB691B78DB00C0
:10233000134406335B001A467B681B68134403F59D
:1023400080631B689BB2C3F30902BB69DA617B68D7
:1023500018687B6803F57B71BB699A88BB69DB6988
:102360009BB201F019FF7B681A687B681B681B88A9
:1023700099B240F68F730B409BB21380786802F0DD
:1023800005FA72E2BB899BB21BB2002B80F26D8210
:102390007B681A687B681B681B8899B240F68F734C
:1023A0000B409BB213807B681B68B3F850309BB224
:1023B0001A46BB691B78DB00134406335B001A46E0
:1023C0007B681B68134403F580631B689BB2C3F3EF
:1023D0000902BB69DA61BB69DB69002B11D07B683C
:1023E0001868BB695969BB699A88BB69DB699BB28C
:1023F00001F0D2FEBB695A69BB69DB691A44BB694B
:102400005A610021786802F0D3F97B681B68B3F841
:1024100050309BB206335B001A467B681B6813443E
:1024200003F580633B61BB691B693E2B18D9BB690F
:102430001B695B09BB83BB691B6903F01F03002B8E
:1024400002D1BB8B013BBB83BB8B9B029BB26FEA70
:1024500043436FEA53439BB21A463B691A6012E04A
:10246000BB691B695B08BB83BB691B6903F0010384
:10247000002B02D0BB8B0133BB83BB8B9B029BB277
:102480001A463B691A607B681B681B889BB223F461
:10249000804323F070039CB284F480539CB284F494
:1024A00000539CB27B681A689A4B23439BB21380FB
:1024B000DBE17B681B681A46FB7D9B0013441B888D
:1024C0009BB2BB81BB899BB21BB2002B80F2D38035
:1024D0007B681B681A46FB7D9B001A447B681B685F
:1024E0001946FB7D9B000B441B8899B240F68F7305
:1024F0000B409BB21380FB7D5B0103F502737A688E
:102500001344BB61BB699B7A002B23D17B681B689A
:10251000B3F850309BB21A46BB691B78DB001344FA
:1025200006335B001A467B681B68134403F580631F
:102530001B689BB2C3F30903FB83FB8B002B75D095
:102540007B681868BB695969BB699A88FB8B01F085
:1025500023FE6BE07B681B681A46BB691B789B00F7
:1025600013441B889BB203F48043002B23D07B6869
:102570001B68B3F850309BB21A46BB691B78DB006E
:10258000134402335B001A467B681B68134403F54F
:1025900080631B689BB2C3F30903FB83FB8B002B97
:1025A0002CD07B681868BB695969BB69DA88FB8BDA
:1025B00001F0F2FD22E07B681B68B3F850309BB25B
:1025C0001A46BB691B78DB00134406335B001A46CE
:1025D0007B681B68134403F580631B689BB2C3F3DD
:1025E0000903FB83FB8B002B08D07B681868BB6951
:1025F0005969BB691A89FB8B01F0CEFD7B681B68AA
:102600001A46BB691B789B001A447B681B681946F5
:10261000BB691B789B000B441B8899B240F60F7373
:102620000B4099B23C4B0B439BB21380BB69DA69F8
:10263000FB8B1A44BB69DA61BB695A69FB8B1A448C
:10264000BB695A61BB699B69002B04D0FA8BBB69DB
:102650001B699A4206D2BB691B781946786802F05A
:10266000A7F808E0BB691978BB695A69BB699B691F
:102670007868FFF78DFCBB899BB203F08003002BC9
:1026800000F0F380FB7D5B0128337A681344BB6163
:102690007B681B681A46FB7D9B001A447B681B689D
:1026A0001946FB7D9B000B441B889BB223F4E1433E
:1026B00023F070039BB21380BB699B7A002B2DD152
:1026C0007B681B68B3F850309BB21A46BB691B7815
:1026D000DB00134402335B001A467B681B6813441B
:1026E00003F580631B689BB2C3F30902BB69DA611F
:1026F000BB69DB69002B00F085807B681868BB69CB
:102700005969BB699A88BB69DB699BB201F0FEFC21
:1027100078E000BF8080FFFFC080FFFF7B681B6800
:102720001A46BB691B789B0013441B889BB203F0BD
:102730004003002B27D07B681B68B3F850309BB256
:102740001A46BB691B78DB00134402335B001A4650
:102750007B681B68134403F580631B689BB2C3F35B
:102760000902BB69DA61BB69DB69002B32D07B6887
:102770001868BB695969BB69DA88BB69DB699BB2B8
:1027800001F0C4FC26E07B681B68B3F850309BB2B4
:102790001A46BB691B78DB00134406335B001A46FC
:1027A0007B681B68134403F580631B689BB2C3F30B
:1027B0000902BB69DA61BB69DB69002B0AD07B685F
:1027C0001868BB695969BB691A89BB69DB699BB227
:1027D00001F09CFC7B681B681A46BB691B789B0058
:1027E0001A447B681B681946BB691B789B000B4425
:1027F0001B8899B240F60F730B4099B2234B0B43E1
:102800009BB213807B681B68B3F850309BB21A46AA
:10281000BB691B78DB00134402335B001A467B68FC
:102820001B68134403F580631B689BB2C3F3090262
:10283000BB69DA61BB695A69BB69DB691A44BB6968
:102840005A61BB699B69002B06D1BB691B7819468D
:10285000786801F0C5FF08E0BB691978BB695A695F
:10286000BB699B697868FFF7F5FB7B681B68B3F869
:1028700044309BB21A46FA811BB2002BFFF6E1AC42
:10288000002318462437BD4690BD00BF80C0FFFF1F
:1028900080B584B000AFF860B9601346FB71FB6887
:1028A000002B01D102231AE0FB68D3F81432002B6D
:1028B00003D0FB680022C3F81422BB68002B03D0AE
:1028C000FB68BA68C3F81022FB68012283F8FC2178
:1028D000FB68FA791A70F86801F0F2FF00231846D5
:1028E0001037BD4680BD00BF80B485B000AF7860B2
:1028F00039600023FB733B68002B06D07B683A6885
:10290000C3F814220023FB7301E00223FB73FB7B5B
:1029100018461437BD4680BC704700BF80B582B0F2
:1029200000AF7860786802F02DF800231846083769
:10293000BD4680BD80B483B000AF786000231846E8
:102940000C37BD4680BC704780B584B000AF78605E
:102950000B46FB700223FB737B68D3F81432002B09
:102960000CD07B68D3F814321B68FA78114678686B
:1029700098470346002B01D10023FB73FB7B1846CD
:102980001037BD4680BD00BF80B582B000AF786013
:102990000B46FB707B68D3F814325B68FA781146FB
:1029A00078689847002318460837BD4680BD00BFA9
:1029B00080B582B000AF786039607B6803F5027340
:1029C0003968184603F06EF87B680122C3F8F421D9
:1029D0007B68B3F80E321A467B68C3F8F8217B682F
:1029E00093F8083203F01F03012B0BD0022B11D0F8
:1029F000002B17D17B6803F502731946786802F043
:102A00009BFC1AE07B6803F502731946786802F0B4
:102A1000E3FC12E07B6803F502731946786802F064
:102A20000FFD0AE07B6893F8083223F07F03DBB2E6
:102A30001946786802F04CF800BF002318460837A2
:102A4000BD4680BD80B586B000AFF8600B467A60A9
:102A5000FB72FB7A002B38D1FB6803F582737B6134
:102A6000FB68D3F8F431032B42D17B699A687B6908
:102A7000DB689A4214D97B699A687B69DB68D21A51
:102A80007B699A607B69DA687B699B68934228BF9F
:102A900013469BB21A467968F86803F03BFA27E0C0
:102AA000FB68D3F814321B69002B0AD0FB6893F83B
:102AB000FC31032B05D1FB68D3F814321B69F8688D
:102AC0009847F86803F038FA12E0FB68D3F814323C
:102AD0009B69002B0CD0FB6893F8FC31032B07D1CA
:102AE000FB68D3F814329B69FA7A1146F868984764
:102AF000002318461837BD4680BD00BF80B586B09C
:102B000000AFF8600B467A60FB72FB7A002B6CD149
:102B1000FB6814337B61FB68D3F8F431022B57D187
:102B20007B699A687B69DB689A4215D97B699A68E8
:102B30007B69DB68D21A7B699A607B699B689BB270
:102B40001A467968F86803F0B5F9002300220021DD
:102B5000F86802F0BFF83BE07B695B687A69D2688D
:102B6000B3FBF2F102FB01F29B1A002B1CD17B6933
:102B70005A687B69DB689A4216D37B695A68FB689E
:102B8000D3F8F8319A420FD200220021F86803F0FE
:102B900091F9FB680022C3F8F821002300220021EC
:102BA000F86802F097F813E0FB68D3F81432DB689A
:102BB000002B0AD0FB6893F8FC31032B05D1FB688E
:102BC000D3F81432DB68F8689847F86803F0C8F95E
:102BD000FB6893F80032012B1AD1F868FFF7AAFEC0
:102BE000FB68002283F8002212E0FB68D3F814325D
:102BF0005B69002B0CD0FB6893F8FC31032B07D1E9
:102C0000FB68D3F814325B69FA7A1146F868984782
:102C1000002318461837BD4680BD00BF80B582B07E
:102C200000AF7860402300220021786801F0DCFECC
:102C30007B684022C3F8102140230022802178685D
:102C400001F0D2FE7B6840221A627B68012283F881
:102C5000FC217B68D3F81832002B09D07B68D3F8AD
:102C600014325B687A685268D2B211467868984725
:102C7000002318460837BD4680BD00BF80B483B02E
:102C800000AF78600B46FB707B68FA781A740023FB
:102C900018460C37BD4680BC704700BF80B483B077
:102CA00000AF78607B6893F8FC217B6883F8FD2196
:102CB0007B68042283F8FC21002318460C37BD46AC
:102CC00080BC704780B483B000AF78607B6893F8B5
:102CD000FD217B6883F8FC21002318460C37BD4694
:102CE00080BC704780B582B000AF78607B6893F895
:102CF000FC31032B0BD17B68D3F81432DB69002B3A
:102D000005D07B68D3F81432DB69786898470023D4
:102D100018460837BD4680BD80B5A0B000AFFDF7AE
:102D2000EBFA00F08BF800F029F900F0EBF803F073
:102D30002BF93D4B00221A600DE03B4B1B683A4AD1
:102D400012683A490A443A4941F82320364B1B6835
:102D50000133354A1360344B1B68072BEDDD01232B
:102D6000FB670023BB6700237B6700233B670823C7
:102D7000FB66304A07F164031068516803C3FB6FB8
:102D800002222D49184603F033F93B462A491846DA
:102D900003F030F97B6F02222749184603F028F927
:102DA0003B462549184603F025F93B6F022222498C
:102DB000184603F01DF93B461F49184603F01AF95F
:102DC000FB6E02221C49184603F012F93B461A49D1
:102DD000184603F00FF9144B00221A6015E0124B4D
:102DE0001B6807F18002134413F81C3C02221249AD
:102DF000184603F0FDF83B460F49184603F0FAF871
:102E0000094B1B680133084A1360074B1B68072BEB
:102E1000E5DD41F28830FDF7B9FA6420FDF7B6FA36
:102E200002F028FFF9E700BFC403002004000020DF
:102E3000A40300209C610008C803002080B594B062
:102E400000AF0123BB624FF48033FB6200233B637E
:102E50000123BB6302237B644FF48033BB644FF4D4
:102E60008013FB6407F128031846FDF743FC034673
:102E7000002B03D0EC21214800F0C2F80F237B6126
:102E80000223BB610023FB614FF480633B6200239C
:102E90007B6207F1140301211846FEF74BFB034642
:102EA000002B03D0FA21154800F0AAF810237B600C
:102EB0004FF480033B613B1D1846FDF727F903469D
:102EC000002B04D040F201110C4800F099F8FEF7F5
:102ED00067FD02460A4BA3FB02239B091846FDF738
:102EE000A1FB0420FDF7AAFB002200214FF0FF30D8
:102EF000FDF76EFB00BF5037BD4680BDA4610008E2
:102F0000D34D621080B500AF194B1A4A1A60184BA6
:102F10004FF482725A60164B00229A60144B0022C2
:102F2000DA60134B00221A61114B00225A61104BD8
:102F30004FF400729A610E4B1822DA610C4B00229A
:102F40001A620B4B00225A62094B00229A62084B0C
:102F50000A22DA62064801F055F90346002B04D034
:102F60004FF49171044800F04BF800BF80BD00BFE2
:102F7000E003002000300140A461000880B588B063
:102F800000AF1D4A1C4B9B6943F0100393611A4B21
:102F90009B6903F01003FB60FB68174A164B9B69A3
:102FA00043F020039361144B9B6903F02003BB6043
:102FB000BB68114A104B9B6943F0040393610E4BAD
:102FC0009B6903F004037B607B6800224FF400518F
:102FD0000A4801F0DBFA4FF400533B6101237B61A7
:102FE0000223FB6107F110031946044801F070F950
:102FF00000BF2037BD4680BD0010024000100140D8
:1030000080B483B000AF78603960FEE784B080B4EC
:1030100083B000AF786007F1140080E80E00002351
:1030200018460C37BD4680BC04B0704780B485B0EC
:1030300000AF78600023FB604FF43D43FB607B688A
:10304000B3F840309AB2FB689BB213439AB27B68E4
:10305000A3F84020002318461437BD4680BC7047B3
:1030600080B485B000AF78600023FB604FF43D432F
:10307000FB607B68B3F840309AB2FB689BB2DB43DD
:103080009BB213409AB27B68A3F8402000231846F5
:103090001437BD4680BC704780B483B000AF786001
:1030A0000B46FB70002318460C37BD4680BC7047AA
:1030B00084B080B483B000AF786007F1140080E87A
:1030C0000E007B680122A3F840207B680022A3F851
:1030D00040207B680022A3F844207B680022A3F8EC
:1030E0005020002318460C37BD4680BC04B0704702
:1030F00090B484B000AF786039603B68DB78032B14
:103100005FD801A252F823F0193100089731000866
:10311000453100086B3100087B683A6812789200EC
:103120001A447B683968097889000B441B889BB274
:1031300023F4EC4323F070039BB243F400739BB27F
:1031400013803FE07B683A68127892001A447B68EB
:103150003968097889000B441B889BB223F4EC433F
:1031600023F070039BB213802CE07B683A681278DE
:1031700092001A447B683968097889000B441B88DF
:103180009BB223F4EC4323F070039BB243F4C0637F
:103190009BB2138016E07B683A68127892001A445A
:1031A0007B683968097889000B441B889BB223F43B
:1031B000EC4323F070039BB243F480639BB2138013
:1031C00000E000BF7B683A68127892001A447B687E
:1031D0003968097889000B441B8899B240F60F734F
:1031E0000B4099B23B681B789BB20B4399B2774B6B
:1031F0000B439BB213803B689B7A002B40F0EC8022
:103200003B685B78002B4DD07B68B3F850309BB2A5
:103210001A463B681B78DB0013445B001A467B6848
:10322000134403F580631A463B689B885B089BB296
:103230005B0013607B683A681278920013441B8825
:103240009BB203F04003002B13D07B683A681278DE
:1032500092001A447B683968097889000B441B88FE
:1032600099B240F60F730B4099B2594B0B439BB286
:1032700013807B683A681278920013441B889BB2D3
:1032800023F4E04323F040039CB284F020039CB27B
:103290007B683A68127892001A444C4B23439BB2E5
:1032A0001380DEE17B68B3F850309BB21A463B686E
:1032B0001B78DB00134404335B001A467B6813441D
:1032C00003F580631A463B689B885B089BB25B00F2
:1032D00013607B68B3F850309BB21A463B681B788A
:1032E000DB00134406335B001A467B68134403F586
:1032F0008063BB603B681B693E2B18D93B681B6928
:103300005B09FB813B681B6903F01F03002B02D1A3
:10331000FB89013BFB81FB899B029BB26FEA434324
:103320006FEA53439BB21A46BB681A6012E03B68CF
:103330001B695B08FB813B681B6903F00103002BE1
:1033400002D0FB890133FB81FB899B029BB21A46A9
:10335000BB681A607B683A681278920013441B8835
:103360009BB203F48043002B13D07B683A68127839
:1033700092001A447B683968097889000B441B88DD
:1033800099B240F60F730B4099B2124B0B439BB2AC
:1033900013807B683A681278920013441B889BB2B2
:1033A00023F4804323F070039CB284F480539CB2D6
:1033B00084F400539CB27B683A68127892001A44F5
:1033C000024B23439BB213804BE100BF8080FFFF81
:1033D000C080FFFF80C0FFFF7B683A6812789200D0
:1033E0001A447B683968097889000B441B8899B2B4
:1033F00040F60F630B4099B29D4B0B439BB2138079
:103400007B68B3F850309BB21A463B681B78DB00F0
:1034100013445B001A467B68134403F580631A4625
:103420003B68DB885B089BB25B0013607B68B3F88A
:1034300050309BB21A463B681B78DB0013440433C0
:103440005B001A467B68134403F580631A463B68A9
:103450001B895B089BB25B0013603B685B78002BA9
:1034600040F083807B683A681278920013441B888E
:103470009BB203F48043002B13D07B683A68127828
:1034800092001A447B683968097889000B441B88CC
:1034900099B240F60F730B4099B2764B0B439BB237
:1034A00013807B683A681278920013441B889BB2A1
:1034B00003F04003002B13D07B683A681278920027
:1034C0001A447B683968097889000B441B8899B2D3
:1034D00040F60F730B4099B2674B0B439BB21380BE
:1034E0007B683A68127892001A447B6839680978D8
:1034F00089000B441B8899B240F60F730B4099B2B8
:103500005D4B0B439BB213807B683A681278920044
:1035100013441B889BB223F4804323F070039CB2B6
:1035200084F480539CB284F400539CB27B683A6864
:10353000127892001A44514B23439BB213807B684C
:103540003A681278920013441B889BB223F4E0433C
:1035500023F040039CB27B683A68127892001A44C8
:10356000464B23439BB213807BE07B683A6812781A
:10357000920013441B889BB203F48043002B13D0AA
:103580007B683A68127892001A447B683968097837
:1035900089000B441B8899B240F60F730B4099B217
:1035A000344B0B439BB213807B683A6812789200CD
:1035B00013441B889BB203F04003002B13D07B689D
:1035C0003A68127892001A447B6839680978890051
:1035D0000B441B8899B240F60F730B4099B2264BEF
:1035E0000B439BB213807B683A68127892001A44AE
:1035F0007B683968097889000B441B8899B240F6CA
:103600000F730B4099B21B4B0B439BB213807B682B
:103610003A681278920013441B889BB223F4E0436B
:1036200023F040039CB27B683A68127892001A44F7
:10363000124B23439BB213807B683A681278920046
:1036400013441B889BB223F4804323F070039CB285
:103650007B683A68127892001A44084B23439BB265
:103660001380002318461037BD4690BC704700BF3A
:103670008081FFFF80C0FFFFC080FFFF8080FFFFD1
:1036800090B482B000AF786039603B689B7A002BC1
:103690006DD13B685B78002B34D07B683A68127838
:1036A000920013441B889BB203F04003002B13D0FD
:1036B0007B683A68127892001A447B683968097806
:1036C00089000B441B8899B240F60F730B4099B2E6
:1036D000684B0B439BB213807B683A681278920068
:1036E00013441B889BB223F4E04323F040039CB2B5
:1036F0007B683A68127892001A445F4B23439BB26E
:10370000138039E17B683A681278920013441B8871
:103710009BB203F48043002B13D07B683A68127885
:1037200092001A447B683968097889000B441B8829
:1037300099B240F60F730B4099B2504B0B439BB2BA
:1037400013807B683A681278920013441B889BB2FE
:1037500023F4804323F070039CB27B683A681278AC
:1037600092001A44444B23439BB2138004E13B680C
:103770005B78002B40F084807B683A681278920076
:1037800013441B889BB203F48043002B13D07B6847
:103790003A68127892001A447B683968097889007F
:1037A0000B441B8899B240F60F730B4099B2334B10
:1037B0000B439BB213807B683A68127892001344E3
:1037C0001B889BB203F04003002B13D07B683A6840
:1037D000127892001A447B683968097889000B4492
:1037E0001B8899B240F60F730B4099B2214B0B43E3
:1037F0009BB213807B683A68127892001A447B6807
:103800003968097889000B441B8899B240F60F7318
:103810000B4099B2174B0B439BB213807B683A68FD
:103820001278920013441B889BB223F4804323F048
:1038300070039CB27B683A68127892001A440E4B6F
:1038400023439BB213807B683A681278920013443A
:103850001B889BB223F4E04323F040039CB27B68B7
:103860003A68127892001A44034B23439BB21380A8
:1038700082E000BFC080FFFF8080FFFF80C0FFFFAD
:103880007B683A681278920013441B889BB203F459
:103890008043002B13D07B683A68127892001A4458
:1038A0007B683968097889000B441B8899B240F617
:1038B0000F730B4099B2334B0B439BB213807B6861
:1038C0003A681278920013441B889BB203F04003BD
:1038D000002B13D07B683A68127892001A447B68F8
:1038E0003968097889000B441B8899B240F60F7338
:1038F0000B4099B2244B0B439BB213807B683A6810
:10390000127892001A447B683968097889000B4460
:103910001B8899B240F60F730B4099B2194B0B43B9
:103920009BB213807B683A681278920013441B881C
:103930009BB223F4E04323F040039CB27B683A68D7
:10394000127892001A44114B23439BB213807B6878
:103950003A681278920013441B889BB223F4804388
:1039600023F070039CB27B683A68127892001A4484
:10397000064B23439BB21380002318460837BD46ED
:1039800090BC704780C0FFFFC080FFFF8080FFFFBA
:1039900090B58DB000AF786039600023FB853B683F
:1039A0009B69BB623B685B78012B40F04E813B68B2
:1039B0009A693B681B699A4209D93B681B69BB62DB
:1039C0003B689A69BB6AD21A3B689A6105E03B681A
:1039D0009B69BB623B6800229A613B689B7A002B23
:1039E0001CD13B6859693B689A88BB6A9BB278686E
:1039F00000F08CFB7B68B3F850309BB21A463B68F2
:103A00001B78DB00134402335B001A467B681344C7
:103A100003F580631A46BB6A1360FAE07B683A6874
:103A20001278920013441B889BB203F04003002BD2
:103A30005BD03B685B78002B3CD17B68B3F850309F
:103A40009BB21A463B681B78DB00134406335B00CD
:103A50001A467B68134403F58063BB61BB6A3E2B47
:103A600016D9BB6A5B09FB84BB6A03F01F03002BFA
:103A700002D1FB8C013BFB84FB8C9B029BB26FEA67
:103A800043436FEA53439BB21A46BB691A6028E06E
:103A9000BB6A5B08FB84BB6A03F00103002B02D006
:103AA000FB8C0133FB84FB8C9B029BB21A46BB69E7
:103AB0001A6016E03B685B78012B12D17B68B3F883
:103AC00050309BB21A463B681B78DB00134402332C
:103AD0005B001A467B68134403F580631A46BB6A91
:103AE00013603B681B89FB855AE03B685B78002BC1
:103AF0003CD17B68B3F850309BB21A463B681B78C8
:103B0000DB00134402335B001A467B68134403F561
:103B100080637B61BB6A3E2B16D9BB6A5B09BB84A1
:103B2000BB6A03F01F03002B02D1BB8C013BBB849B
:103B3000BB8C9B029BB26FEA43436FEA53439BB239
:103B40001A467B691A6028E0BB6A5B08BB84BB6AC3
:103B500003F00103002B02D0BB8C0133BB84BB8C70
:103B60009B029BB21A467B691A6016E03B685B7841
:103B7000012B12D17B68B3F850309BB21A463B68D8
:103B80001B78DB00134402335B001A467B68134446
:103B900003F580631A46BB6A13603B68DB88FB85CC
:103BA0003B685969BB6A9BB2FA8D786800F0AEFA3F
:103BB0003B685B78002B14D17B683A6812789200DE
:103BC0001A447B683968097889000B441B8899B2CC
:103BD00040F60F730B4099B2944B0B439BB213808A
:103BE00017E03B685B78012B13D17B683A68127849
:103BF00092001A447B683968097889000B441B8855
:103C000099B240F60F730B4099B2894B0B439BB2AC
:103C100013807B683A681278920013441B889BB229
:103C200023F4E04323F040039CB284F010039CB2E1
:103C300084F020039CB27B683A68127892001A44A0
:103C40007C4B23439BB2138028E13B689A693B6815
:103C50001B699A4209D93B681B69BB623B689A6938
:103C6000BB6AD21A3B689A6105E03B689B69BB62FC
:103C70003B6800229A613B689B7A002B3CD17B68B1
:103C8000B3F850309BB21A463B681B78DB001344F4
:103C900006335B001A467B68134403F580633B617F
:103CA000BB6A3E2B16D9BB6A5B097B84BB6A03F0F7
:103CB0001F03002B02D17B8C013B7B847B8C9B02FE
:103CC0009BB26FEA43436FEA53439BB21A463B6988
:103CD0001A60C8E0BB6A5B087B84BB6A03F001031F
:103CE000002B02D07B8C01337B847B8C9B029BB2AC
:103CF0001A463B691A60B6E03B685B78002B3CD102
:103D00007B68B3F850309BB21A463B681B78DB00E7
:103D1000134402335B001A467B68134403F5806347
:103D2000FB60BB6A3E2B16D9BB6A5B093B84BB6A4E
:103D300003F01F03002B02D13B8C013B3B843B8CE7
:103D40009B029BB26FEA43436FEA53439BB21A460E
:103D5000FB681A6028E0BB6A5B083B84BB6A03F01F
:103D60000103002B02D03B8C01333B843B8C9B0234
:103D70009BB21A46FB681A6016E03B685B78012B21
:103D800012D17B68B3F850309BB21A463B681B785F
:103D9000DB00134402335B001A467B68134403F5CF
:103DA00080631A46BB6A13603B685B78002B43D183
:103DB0007B68B3F850309BB21A463B681B78DB0037
:103DC000134406335B001A467B68134403F5806393
:103DD000BB60BB6A3E2B16D9BB6A5B09FB83BB6A1F
:103DE00003F01F03002B02D1FB8B013BFB83FB8BFA
:103DF0009B029BB26FEA43436FEA53439BB21A465E
:103E0000BB681A602FE0BB6A5B08FB83BB6A03F0E8
:103E10000103002B02D0FB8B0133FB83FB8B9B0246
:103E20009BB21A46BB681A601DE000BFC080FFFF4E
:103E300080C0FFFF8080FFFF3B685B78012B12D1C1
:103E40007B68B3F850309BB21A463B681B78DB00A6
:103E5000134402335B001A467B68134403F5806306
:103E60001A46BB6A13607B683A6812789200134462
:103E70001B889BB223F4804323F070039CB284F42C
:103E800080539CB284F400539CB27B683A681278E9
:103E900092001A44044B23439BB21380002318461C
:103EA0003437BD4690BD00BF8080FFFF90B482B024
:103EB00000AF786039603B681B78002B18D17B68B5
:103EC0003A681278920013441B889BB24BF6BF7479
:103ED0001C4084F4805484F010047B683A681278A3
:103EE00092001A44A1B2204B0B439BB2138034E0E2
:103EF0003B685B78002B18D07B683A681278920098
:103F000013441B889BB223F4E04323F040039CB28C
:103F100084F010039CB27B683A68127892001A44CD
:103F2000114B23439BB2138017E07B683A681278E9
:103F3000920013441B889BB223F4804323F0700348
:103F40009CB284F480539CB27B683A6812789200E9
:103F50001A44054B23439BB21380002318460837AD
:103F6000BD4690BC704700BF8080FFFF90B482B018
:103F700000AF786039603B685B78002B3AD07B6893
:103F80003A681278920013441B889BB203F04003F6
:103F9000002B13D07B683A68127892001A447B6831
:103FA0003968097889000B441B8899B240F60F7371
:103FB0000B4099B22F4B0B439BB213807B683A683E
:103FC0001278920013441B889BB223F4E04323F041
:103FD00040039CB284F010039CB284F020039CB296
:103FE0007B683A68127892001A44234B23439BB2B1
:103FF000138039E07B683A681278920013441B887A
:104000009BB203F48043002B13D07B683A6812788C
:1040100092001A447B683968097889000B441B8830
:1040200099B240F60F730B4099B2144B0B439BB2FD
:1040300013807B683A681278920013441B889BB205
:1040400023F4804323F070039CB284F480539CB229
:1040500084F400539CB27B683A68127892001A4448
:10406000054B23439BB21380002318460837BD46F7
:1040700090BC7047C080FFFF8080FFFF80C0FFFFC3
:1040800080B483B000AF78600B46FB70FB78002BE8
:1040900003D17B688022A3F84C20002318460C37FC
:1040A000BD4680BC704700BF80B483B000AF78606D
:1040B000002318460C37BD4680BC704780B483B0DF
:1040C00000AF7860002318460C37BD4680BC7047AF
:1040D00080B485B000AF78600023FB607B68B3F8E4
:1040E00044309BB2FB60FB6818461437BD4680BC69
:1040F000704700BF80B483B000AF786039600023A0
:1041000018460C37BD4680BC704700BF80B48BB0EA
:1041100000AFF860B96011461A460B46FB801346A3
:10412000BB80BB8801335B10FB6100237B620023F3
:10413000BB6100237B6100233B62FB885B001A4666
:10414000FB68134403F580633B62FB697B621BE001
:10415000BB681B78BB61BB680133BB60BB681B7865
:104160001B021A46BB6913437B613B6A9A1C3A6285
:104170007A6992B21A803B6A02333B62BB680133B0
:10418000BB607B6A013B7B627B6A002BE0D100BF96
:104190002C37BD4680BC704780B489B000AFF86052
:1041A000B96011461A460B46FB801346BB80BB889C
:1041B00001335B107B610023FB610023BB61FB8843
:1041C0005B001A46FB68134403F58063BB617B699F
:1041D000FB610EE0BB685A1CBA60BA69111DB96177
:1041E000126892B21A80BB680133BB60FB69013B65
:1041F000FB61FB69002BEDD100BF2437BD4680BCBD
:10420000704700BF80B582B000AF78607B68002B3C
:1042100001D1012356E07B6893F85130DBB2002BCB
:1042200002D1786800F012FE7B68022283F85120E8
:104230007B681B687A681268126822F040021A6074
:104240007B681B687A6851687A68926811437A685B
:10425000D26811437A68126911437A68526911432E
:104260007A68926902F4007211437A68D269114344
:104270007A68126A11437A68926A0A431A607B6804
:104280001B687A689269120C02F004017A68526A1B
:104290000A435A607B681B687A68D26A1A617B6835
:1042A0001B687A681268D26922F40062DA61074BEF
:1042B00000221A707B6800225A657B68012283F80D
:1042C0005120002318460837BD4680BD7C010020E0
:1042D00080B48BB000AF786039600023FB610023AD
:1042E000BB6100237B6100233B6200233B61002311
:1042F0007B6227E101227B6A02FA03F3FB613B68E0
:104300001A68FB691340BB61BA69FB699A4240F0C5
:1043100016813B685B68122B34D0122B0DD8022B10
:104320002BD0022B04D8002B31D0012B1CD048E01D
:10433000032B43D0112B1BD043E0874A934226D056
:10434000854A934206D8854A934220D0844A9342B4
:104350001DD036E0834A934219D0834A934216D047
:10436000824A934213D02CE03B68DB683B6228E032
:104370003B68DB6804333B6223E03B68DB6808335F
:104380003B621EE03B68DB680C333B6219E03B6834
:104390009B68002B02D104233B6212E03B689B68C0
:1043A000012B05D108233B627B68FA691A6108E09A
:1043B00008233B627B68FA695A6102E000233B6292
:1043C00000BFBB69FF2B01D87B6801E07B68043329
:1043D000FB60BB69FF2B02D87B6A9B0002E07B6A13
:1043E000083B9B003B61FB681A680F213B6901FA9F
:1043F00003F3DB431A40396A3B6901FA03F31A43BA
:10440000FB681A603B685B6803F08053002B00F088
:104410009680574A564B9B6943F001039361544B76
:104420009B6903F00103BB60BB68524A7B6A9B082F
:10443000023352F823307B617B6A03F003039B0055
:104440000F2202FA03F3DB437A6913407B617B6836
:10445000494A934213D07B68484A93420DD07B6807
:10446000474A934207D07B68464A934201D10323CF
:1044700006E0042304E0022302E0012300E000231D
:104480007A6A02F00302920093407A6913437B61D7
:1044900038497B6A9B0802337A6941F823203B68DC
:1044A0005B6803F48033002B06D03749364B1A681B
:1044B000BB6913430B6006E03349334B1A68BB6991
:1044C000DB4313400B603B685B6803F40033002B55
:1044D00006D02D492C4B5A68BB6913434B6006E04C
:1044E0002949294B5A68BB69DB4313404B603B6841
:1044F0005B6803F48013002B06D02349224B9A6893
:10450000BB6913438B6006E01F491F4B9A68BB6968
:10451000DB4313408B603B685B6803F40013002BA4
:1045200006D01949184BDA68BB691343CB6006E023
:104530001549154BDA68BB69DB431340CB607B6AD6
:1045400001337B627B6A0F2B7FF6D4AE00BF2C3722
:10455000BD4680BC704700BF000021100000111054
:104560000000121000003110000032100000221074
:10457000001002400000014000080140000C014012
:1045800000100140001401400004014080B483B0D9
:1045900000AF78600B467B8013467B707B78002BE6
:1045A00003D07A887B681A6103E07B881A047B68F1
:1045B0001A6100BF0C37BD4680BC704780B483B021
:1045C00000AF78600B467B807B68DA687B885A4056
:1045D0007B68DA6000BF0C37BD4680BC704700BF07
:1045E00080B483B000AF03463960FB713B68122290
:1045F0001A80034B18460C37BD4680BC704700BF7D
:104600004000002080B483B000AF03463960FB71E6
:104610003B6804221A80034B18460C37BD4680BC09
:10462000704700BF5400002080B582B000AF034641
:104630003960FB71FB79002B05D13A6807490848BE
:1046400001F07EFA04E03A680449054801F078FA7E
:10465000024B18460837BD4680BD00BF4404002009
:10466000D061000880B582B000AF03463960FB71AD
:104670003A680449044801F063FA024B18460837C7
:10468000BD4680BD44040020E861000880B582B0CA
:1046900000AF03463960FB71FB79002B05D13A6806
:1046A0000749084801F04CFA04E03A680449054813
:1046B00001F046FA024B18460837BD4680BD00BFE0
:1046C00044040020FC61000880B582B000AF0346BE
:1046D0003960FB71FB79002B05D13A68074908481E
:1046E00001F02EFA04E03A680449054801F028FA7E
:1046F000024B18460837BD4680BD00BF4404002069
:104700000C62000880B582B000AF03463960FB71CF
:10471000FB79002B05D13A680749084801F010FAE7
:1047200004E03A680449054801F00AFA024B1846C9
:104730000837BD4680BD00BF440400201862000851
:1047400080B584B000AF78607B681B680D4A9342E7
:1047500013D10D4A0C4BDB6943F40003D3610A4BC0
:10476000DB6903F40003FB60FB68002200211420D6
:10477000FBF72EFF1420FBF747FF00BF1037BD46A5
:1047800080BD00BF005C00400010024080B582B0D8
:1047900000AF78607B68D3F81C247B6803F57B73DB
:1047A00019461046FEF704F900BF0837BD4680BD24
:1047B00080B582B000AF78600B46FB707B68D3F8A1
:1047C0001C04FB787A685B01134403F507731A68CD
:1047D000FB781946FEF736F900BF0837BD4680BDA5
:1047E00080B582B000AF78600B46FB707B68D3F871
:1047F0001C04FB787A685B0113443C331A68FB782D
:104800001946FEF77BF900BF0837BD4680BD00BFE3
:1048100080B582B000AF78607B68D3F81C3418464E
:10482000FEF760FA00BF0837BD4680BD80B584B092
:1048300000AF78600123FB737B689B68022B02D179
:104840000123FB7302E00123FB7300BF7B68D3F8F5
:104850001C34FA7B11461846FEF710FA7B68D3F831
:104860001C341846FEF7DAF900BF1037BD4680BD8C
:1048700080B582B000AF78607B68D3F81C341846EE
:10488000FEF70CFA7B689B69002B05D0044A044BA9
:104890001B6943F00603136100BF0837BD4680BDA6
:1048A00000ED00E080B582B000AF78607B68D3F89F
:1048B0001C341846FEF706FA00BF0837BD4680BD17
:1048C00080B582B000AF78602B4A7B68C2F81C3498
:1048D0007B68294AC3F82022274B284A1A60264BB6
:1048E00008225A60244B02229A60234B0322DA608A
:1048F000214B00229A61204B0022DA611E4B0022DC
:104900001A621D48FDF78AF80346002B04D04FF4C5
:104910008D711B48FEF774FB7B68D3F820021823C7
:104920000022002101F068F97B68D3F820025823A7
:104930000022802101F060F97B68D3F82002C023B7
:104940000022812101F058F97B68D3F820024FF44E
:1049500088730022012101F04FF97B68D3F820020F
:104960004FF480730022822101F046F9002318469B
:104970000837BD4680BD00BF44060020005C0040F3
:104980002862000880B584B000AF78600023BB7354
:104990000023FB737B68D3F820321846FDF718F923
:1049A0000346BB73BB7B032B16D801A252F823F03E
:1049B000C1490008C7490008CD490008D34900088B
:1049C0000023FB730BE00223FB7308E00123FB735E
:1049D00005E00223FB7302E00223FB7300BFFB7BB5
:1049E00018461037BD4680BD80B584B000AF7860F2
:1049F000084611461A460346FB700B46BB70134629
:104A00003B800023BB730023FB737B68D3F8200239
:104A1000BB783A88F978FDF71FFA0346BB73BB7B76
:104A2000032B17D801A252F823F000BF3D4A00081B
:104A3000434A0008494A00084F4A00080023FB7314
:104A40000BE00223FB7308E00123FB7305E0022364
:104A5000FB7302E00223FB7300BFFB7B1846103799
:104A6000BD4680BD80B584B000AF78600B46FB705A
:104A70000023BB730023FB737B68D3F82032FA78E2
:104A800011461846FDF73EFA0346BB73BB7B032B6A
:104A900016D801A252F823F0A94A0008AF4A00082C
:104AA000B54A0008BB4A00080023FB730BE0022351
:104AB000FB7308E00123FB7305E00223FB7302E0B4
:104AC0000223FB7300BFFB7B18461037BD4680BD39
:104AD00080B584B000AF78600B46FB700023BB73D9
:104AE0000023FB737B68D3F82032FA78114618460E
:104AF000FDF7FAFA0346BB73BB7B032B16D801A262
:104B000052F823F0154B00081B4B0008214B0008FE
:104B1000274B00080023FB730BE00223FB7308E024
:104B20000123FB7305E00223FB7302E00223FB7306
:104B300000BFFB7B18461037BD4680BD80B584B0F2
:104B400000AF78600B46FB700023BB730023FB7340
:104B50007B68D3F82032FA7811461846FDF71AFB25
:104B60000346BB73BB7B032B16D801A252F823F07C
:104B7000814B0008874B00088D4B0008934B0008C1
:104B80000023FB730BE00223FB7308E00123FB739C
:104B900005E00223FB7302E00223FB7300BFFB7BF3
:104BA00018461037BD4680BD80B485B000AF786030
:104BB0000B46FB707B68D3F82032FB6097F903301B
:104BC000002B08DAFB7803F07F03FA685B011344DB
:104BD0002A331B7808E0FB7803F07F03FA685B0157
:104BE000134403F20A231B7818461437BD4680BCD1
:104BF000704700BF80B584B000AF78600B46FB7093
:104C00000023BB730023FB737B68D3F82032FA7850
:104C100011461846FDF7FAF80346BB73BB7B032B1E
:104C200016D801A252F823F0394C00083F4C000876
:104C3000454C00084B4C00080023FB730BE002239B
:104C4000FB7308E00123FB7305E00223FB7302E022
:104C50000223FB7300BFFB7B18461037BD4680BDA7
:104C600080B586B000AFF8607A601A460B46FB72DA
:104C700013463B810023BB750023FB75FB68D3F80B
:104C800020023B89F97A7A68FDF7E4F90346BB759F
:104C9000BB7D032B16D801A252F823F0AD4C0008BF
:104CA000B34C0008B94C0008BF4C00080023FB754A
:104CB0000BE00223FB7508E00123FB7505E00223EE
:104CC000FB7502E00223FB7500BFFB7D1846183719
:104CD000BD4680BD80B586B000AFF8607A601A46E8
:104CE0000B46FB7213463B810023BB750023FB750B
:104CF000FB68D3F820023B89F97A7A68FDF748F916
:104D00000346BB75BB7D032B16D801A252F823F0D6
:104D1000214D0008274D00082D4D0008334D000897
:104D20000023FB750BE00223FB7508E00123FB75F4
:104D300005E00223FB7502E00223FB7500BFFB7D4B
:104D400018461837BD4680BD80B582B000AF786088
:104D50000B46FB707B68D3F82032FA781146184670
:104D6000FDF762F9034618460837BD4680BD00BF0F
:104D700080B483B000AF7860024B18460C37BD4654
:104D800080BC70478001002080B483B000AF7860A1
:104D900000BF0C37BD4680BC704700BF80B483B0F5
:104DA00000AF78600B46FB7000BF0C37BD4680BC7F
:104DB000704700BF80B582B000AF224A214B9B698B
:104DC00043F0010393611F4B9B6903F001037B6078
:104DD0007B680320FBF7F0FB002200216FF00B0043
:104DE000FBF7F6FB002200216FF00A00FBF7F0FB57
:104DF000002200216FF00900FBF7EAFB00220021EE
:104E00006FF00400FBF7E4FB002200216FF00300C9
:104E1000FBF7DEFB002200216FF00100FBF7D8FB5F
:104E2000002200214FF0FF30FBF7D2FB064A064B71
:104E30005B6823F0E06343F08063536000BF083792
:104E4000BD4680BD001002400000014080B588B022
:104E500000AF78607B681B68154A934223D1154ADE
:104E6000144B9B6943F480539361124B9B6903F489
:104E70008053FB60FB68A0233B6102237B6103231B
:104E8000FB6107F1100319460B48FFF721FA402395
:104E90003B6100237B610023BB6107F110031946CE
:104EA0000548FFF715FA00BF2037BD4680BD00BF9B
:104EB00000300140001002400008014080B584B07D
:104EC00000AF78600B46FB700023FB737B681B7C94
:104ED000002B0ED14FF40073022281217868FFF776
:104EE00083FD4FF40073022201217868FFF77CFDF7
:104EF0000BE04023022281217868FFF775FD4023F3
:104F0000022201217868FFF76FFD08230322822126
:104F10007868FFF769FD4FF40770FFF729FF024635
:104F20007B68C3F818227B68D3F81832002B02D1B3
:104F30000123FB7326E07B68D3F81832BB607B68E3
:104F4000D3F81C321B689847BB680022C3F81422B0
:104F5000BB680022C3F818227B681B7C002B09D198
:104F6000BB68D3F804224FF4007301217868FFF77F
:104F7000B1FE07E0BB68D3F8042240230121786822
:104F8000FFF7A8FEFB7B18461037BD4680BD00BF6B
:104F900080B584B000AF78600B46FB700023FB73D4
:104FA00081217868FFF75EFD01217868FFF75AFDDF
:104FB00082217868FFF756FD7B68D3F81832002B02
:104FC0000ED07B68D3F81C325B6898477B68D3F8B7
:104FD00018321846FFF7D8FE7B680022C3F8182263
:104FE000FB7B18461037BD4680BD00BF80B584B03E
:104FF00000AF786039607B68D3F81832FB603B689B
:105000001B7803F06003002B3AD0202B00D043E044
:105010003B68DB88002B29D03B681B785BB2002BF8
:1050200011DA7B68D3F81C329B683A685078F968CB
:105030003A68D2889847F9683B68DB881A467868EE
:1050400000F01CFF29E03B685A78FB6883F80022D7
:105050003B68DB88DAB2FB6883F80122F9683B68B9
:10506000DB881A46786800F037FF16E07B68D3F8D3
:105070001C329B683A6850780022396898470CE0E7
:105080003B685B780A2B01D00B2B05E00122054918
:10509000786800F0F3FE00BF00BF00231846103709
:1050A000BD4680BDA003002080B485B000AF78600D
:1050B0000B46FB707B68D3F81832FB607B68D3F833
:1050C0001832002B05D0FB680022C3F814220023FD
:1050D00000E0022318461437BD4680BC704700BF6D
:1050E00080B584B000AF78600B46FB707B68D3F866
:1050F0001832FB60FB7819467868FFF725FE0246F8
:10510000FB68C3F80C227B68D3F81832002B0DD053
:105110007B68D3F81C32DB68FA68D2F80402FA68BC
:1051200002F5037211469847002300E00223184657
:105130001037BD4680BD00BF80B584B000AF786039
:105140007B68D3F81832FB607B68D3F81C32002BE5
:1051500015D0FB6893F80032FF2B10D07B68D3F892
:105160001C329B68FA6892F80002F968FA6892F8B3
:10517000012292B29847FB68FF2283F800220023A5
:1051800018461037BD4680BD80B483B000AF78604C
:105190007B6843221A80034B18460C37BD4680BCFF
:1051A000704700BFE000002080B483B000AF78609B
:1051B0007B6843221A80034B18460C37BD4680BCDF
:1051C000704700BF9C00002080B483B000AF7860BF
:1051D0007B6843221A80034B18460C37BD4680BCBF
:1051E000704700BF2401002080B483B000AF786016
:1051F0007B680A221A80034B18460C37BD4680BCD8
:10520000704700BF5800002080B485B000AF7860C0
:1052100039600223FB733B68002B05D07B683A683A
:10522000C3F81C220023FB73FB7B18461437BD46D2
:1052300080BC704780B487B000AFF860B960134697
:10524000FB80FB68D3F818327B617B69BA68C3F8CE
:105250000822FA887B69C3F81022002318461C37FD
:10526000BD4680BC704700BF80B485B000AF786099
:1052700039607B68D3F81832FB60FB683A68C3F882
:105280000422002318461437BD4680BC704700BF77
:1052900080B584B000AF78607B68D3F81832FB60CB
:1052A0007B68D3F81832002B17D0FB68D3F8143280
:1052B000002B10D1FB680122C3F81422FB68D3F83D
:1052C0000822FB68D3F810329BB281217868FFF77F
:1052D000C7FC002302E0012300E002231846103738
:1052E000BD4680BD80B584B000AF78607B68D3F8E0
:1052F0001832FB607B68D3F81832002B17D07B681C
:105300001B7C002B09D1FB68D3F804224FF40073F7
:1053100001217868FFF7DEFC07E0FB68D3F8042280
:10532000402301217868FFF7D5FC002300E0022329
:1053300018461037BD4680BD80B584B000AF786098
:1053400039600023FB733B685B78092B39D801A2D5
:1053500052F823F0A5530008B9530008C3530008BE
:10536000AF530008C3530008875300087D5300085B
:10537000C35300089B5300089153000839687868AC
:1053800000F036F922E03968786800F025FA1DE06F
:105390003968786800F05EFA18E03968786800F0DB
:1053A000E1FA13E03968786800F00EFB0EE0396826
:1053B000786800F033FB09E03968786800F04AFB50
:1053C00004E03968786800F0A9FB00BFFB7B184651
:1053D0001037BD4680BD00BF80B584B000AF786097
:1053E00039600023FB737B6893F8FC31032B1BD1DE
:1053F0003B689B88DBB2012B11D87B68D3F8143251
:105400009B683968786898473B68DB88002B10D127
:10541000FB7B002B0DD1786800F08EFD09E0396828
:10542000786800F07BFB04E03968786800F076FB70
:1054300000E000BF002318461037BD4680BD00BF06
:1054400080B584B000AF786039600023FB733B689F
:105450009B88BB733B681B7803F06003202B08D14B
:105460007B68D3F814329B683968786898470023C2
:10547000BAE03B685B78012B39D0032B02D0002BBC
:105480006BD0B0E07B6893F8FC31022B02D0032B89
:105490000CD025E0BB7B002B27D0BB7B802B24D0FE
:1054A000BB7B19467868FFF713FB1EE03B685B88FF
:1054B000002B0AD1BB7B002B07D0BB7B802B04D0F9
:1054C000BB7B19467868FFF703FB7B68D3F814327F
:1054D0009B68396878689847786800F02DFD05E08A
:1054E0003968786800F01AFB00E000BF7BE07B6859
:1054F00093F8FC31022B02D0032B0CD024E0BB7BB1
:10550000002B26D0BB7B802B23D0BB7B1946786831
:10551000FFF7DEFA1DE03B685B88002B1BD1BB7BED
:1055200003F07F03002B0BD0BB7B19467868FFF795
:1055300005FB7B68D3F814329B6839687868984714
:10554000786800F0F9FC06E03968786800F0E6FA5F
:1055500002E000BF47E000BF45E07B6893F8FC3104
:10556000022B02D0032B0BD036E0BB7B03F07F0372
:10557000002B36D0BB7B19467868FFF7A9FA30E0DC
:1055800097F90E30002B08DABB7B03F07F03013361
:105590001B017A681344043307E0BB7B03F07F03ED
:1055A00010331B017A6813440433BB60BB7B19467C
:1055B0007868FFF7F9FA0346002B03D0BB68012295
:1055C0001A6002E0BB6800221A60BB68022219461A
:1055D000786800F053FC05E03968786800F09EFABE
:1055E00000E000BF00BFFB7B18461037BD4680BD02
:1055F00080B584B000AF786039603B685B881B0A77
:105600009BB2013B062B00F2C98001A252F823F0A5
:105610002D56000845560008855600089D5700087D
:105620009D570008495700086F5700087B68D3F85A
:1056300010321B687A68127C07F10A0110469847FD
:10564000F860B0E07B681B7C002B0DD17B68D3F841
:1056500014329B6A07F10A0210469847F860FB680B
:10566000013302221A709EE07B68D3F81432DB6AA1
:1056700007F10A0210469847F860FB6801330222DE
:105680001A7090E03B685B88DBB2052B56D801A20C
:1056900052F823F0AD560008C5560008DD56000844
:1056A000F55600080D570008255700087B68D3F809
:1056B00010325B687A68127C07F10A01104698473D
:1056C000F86040E07B68D3F810329B687A68127CFF
:1056D00007F10A0110469847F86034E07B68D3F878
:1056E0001032DB687A68127C07F10A01104698478D
:1056F000F86028E07B68D3F810321B697A68127C66
:1057000007F10A0110469847F8601CE07B68D3F85F
:1057100010325B697A68127C07F10A0110469847DB
:10572000F86010E07B68D3F810329B697A68127CCD
:1057300007F10A0110469847F86004E03968786874
:1057400000F0ECF944E02EE07B681B7C002B09D1D3
:105750007B68D3F814325B6B07F10A021046984756
:10576000F86020E03968786800F0D8F930E07B68AC
:105770001B7C002B0DD17B68D3F814321B6B07F117
:105780000A0210469847F860FB68013307221A7036
:1057900009E03968786800F0C1F919E0396878687B
:1057A00000F0BCF914E07B89002B11D03B68DB884A
:1057B000002B0DD03B68DA887B89934228BF1346C3
:1057C0009BB27B817B891A46F968786800F056FBAA
:1057D0001037BD4680BD00BF80B584B000AF786093
:1057E00039603B689B88002B2CD13B68DB88002B01
:1057F00028D13B685B88DBB203F07F03FB737B68D7
:1058000093F8FC31032B04D13968786800F086F9ED
:105810001CE07B68FA7B83F8FE21FB7B19467868E5
:10582000FFF7E8F9786800F087FBFB7B002B04D0DA
:105830007B68022283F8FC2108E07B68012283F860
:10584000FC2103E03968786800F068F900BF103780
:10585000BD4680BD80B582B000AF786039603B68DE
:105860005B88DAB23E4B1A703D4B1B78012B04D992
:105870003968786800F052F96FE07B6893F8FC3182
:10588000022B02D0032B23D062E0354B1B78002B78
:105890001AD0334B1B781A467B685A607B68032208
:1058A00083F8FC212E4B1B7819467868FDF74CF8DD
:1058B0000346022B04D13968786800F02FF94CE0D8
:1058C000786800F039FB48E0786800F035FB44E088
:1058D000234B1B78002B12D17B68022283F8FC211A
:1058E0001F4B1B781A467B685A601D4B1B78194664
:1058F0007868FDF749F8786800F01EFB2DE0184B3A
:105900001B781A467B685B689A421DD07B685B688F
:10591000DBB219467868FDF737F8114B1B781A4649
:105920007B685A600E4B1B7819467868FDF70CF8B7
:105930000346022B04D13968786800F0EFF80CE0D8
:10594000786800F0F9FA08E0786800F0F5FA04E009
:105950003968786800F0E2F800BF0837BD4680BDBE
:10596000A103002080B582B000AF786039603B6849
:10597000DB88012B04D03968786800F0CFF81FE08D
:105980007B6893F8FC31022B02D0032B0BD012E082
:105990007B6800229A607B68083301221946786888
:1059A00000F06CFA0CE07B68043301221946786839
:1059B00000F064FA04E03968786800F0AFF800BFDE
:1059C00000BF0837BD4680BD80B582B000AF7860AB
:1059D00039607B6893F8FC31023B012B15D87B685A
:1059E0000122DA607B68D3F80432002B05D07B6893
:1059F000DB6843F002027B68DA607B680C330222CA
:105A00001946786800F03AFA04E03968786800F0DE
:105A100085F800BF00BF0837BD4680BD80B582B0A5
:105A200000AF786039603B685B88012B0DD17B68E3
:105A30000122C3F804227B68D3F814329B683968CA
:105A400078689847786800F077FA00BF0837BD4655
:105A500080BD00BF80B582B000AF786039607B68E0
:105A600093F8FC31023B012B12D83B685B88012B79
:105A700013D17B680022C3F804227B68D3F8143268
:105A80009B68396878689847786800F055FA04E0B0
:105A90003968786800F042F800E000BF00BF0837BE
:105AA000BD4680BD80B483B000AF786039603B688C
:105AB0001A787B681A703B685A787B685A703B6822
:105AC00002331B789AB23B6803331B789BB21B02EC
:105AD0009BB213449AB27B685A803B6804331B78AC
