:020000040800F2
:100000007804002069170008CD010008D901000814
:10001000E1010008E9010008F1010008000000000A
:10002000000000000000000000000000F9010008CE
:100030000502000800000000110200081D0200086F
:10004000C9170008C9170008C9170008C917000810
:10005000C9170008C9170008C9170008C917000800
:10006000C9170008C9170008C9170008C9170008F0
:10007000C9170008C9170008C9170008C9170008E0
:10008000C9170008C9170008C9170008C9170008D0
:10009000C9170008C9170008C9170008C9170008C0
:1000A000C9170008C9170008C9170008C9170008B0
:1000B000C9170008C9170008C9170008C9170008A0
:1000C000C9170008C9170008C9170008C917000890
:1000D000C9170008C9170008C9170008C917000880
:1000E000C9170008C9170008C91700080000000058
:1000F0000000000000000000000000000000000000
:1001000000000000000000005FF808F180B500AFBB
:10011000084A084B1B6843F010031360032000F0EB
:1001200033F9002000F008F802F0D6FA0023184650
:1001300080BD00BF0020024080B582B000AF786073
:1001400001F008FB0246094BA3FB02239B0918465A
:1001500000F042F9002279684FF0FF3000F020F9FA
:10016000002318460837BD4680BD00BFD34D62103E
:1001700080B400AF044B1B680133034A136000BF17
:10018000BD4680BC704700BF0C00002080B400AFAB
:10019000024B1B681846BD4680BC70470C0000200F
:1001A00080B584B000AF78600023FB60FFF7EEFFFE
:1001B000F86000BFFFF7EAFF0246FB68D21A7B68CF
:1001C0009A42F7D300BF1037BD4680BD80B400AF60
:1001D00000BFBD4680BC704780B400AFFEE700BFE3
:1001E00080B400AFFEE700BF80B400AFFEE700BF01
:1001F00080B400AFFEE700BF80B400AF00BFBD46D3
:1002000080BC704780B400AF00BFBD4680BC704763
:1002100080B400AF00BFBD4680BC704780B500AF62
:10022000FFF7A6FF00F000F900BF80BD80B485B0E5
:1002300000AF78607B6803F00703FB600C4BDB6862
:10024000BB60BA684FF6FF031340BB60FB681A023D
:10025000BB68134343F0BF6343F40033BB60044AFD
:10026000BB68D36000BF1437BD4680BC704700BF79
:1002700000ED00E080B400AF044BDB6803F4E06302
:100280001B0A1846BD4680BC704700BF00ED00E069
:1002900080B483B000AF03463960FB7197F9073033
:1002A000002B0BDA0D49FB7903F00F03043B3A688E
:1002B000D2B21201D2B20B441A7609E0084997F97A
:1002C00007303A68D2B21201D2B20B4483F800234D
:1002D00000BF0C37BD4680BC704700BF00ED00E09A
:1002E00000E100E080B489B000AFF860B9607A60E6
:1002F000FB6803F00703FB61FB69C3F10703042BF1
:1003000028BF0423BB61FB690433062B02D9FB69B8
:10031000033B00E000237B610122BB6902FA03F387
:100320005A1EBB681A407B699A4001217B6901FA19
:1003300003F3591E7B680B40134318462437BD4610
:1003400080BC704780B582B000AF78607B68013BAD
:10035000B3F1807F01D301230FE00A4A7B68013BA0
:1003600053600F214FF0FF30FFF792FF054B002243
:100370009A60044B07221A60002318460837BD46CE
:1003800080BD00BF10E000E080B582B000AF7860B3
:100390007868FFF74BFF00BF0837BD4680BD00BF40
:1003A00080B586B000AF0346B9607A60FB73002366
:1003B0007B61FFF75FFF78617A68B9687869FFF75A
:1003C00091FF024697F90F3011461846FFF760FF7C
:1003D00000BF1837BD4680BD80B582B000AF7860E1
:1003E0007868FFF7AFFF034618460837BD4680BD63
:1003F00080B483B000AF78607B68042B06D1094AD3
:10040000084B1B6843F00403136005E0054A054BE5
:100410001B6823F00403136000BF0C37BD4680BC8B
:10042000704700BF10E000E080B500AF00F002F8B8
:1004300000BF80BD80B400AF00BFBD4680BC704728
:1004400080B400AF154A154B1B6843F001031360DD
:100450001249124B5A68124B13404B600F4A0F4B14
:100460001B6823F0847323F4803313600B4A0B4B17
:100470001B6823F480231360084A084B5B6823F44D
:10048000FE035360054B4FF41F029A60054B4FF07B
:1004900000629A6000BFBD4680BC704700100240F9
:1004A0000000FFF800ED00E090B5E5B000AF3B1DA7
:1004B00018600023C7F88C313B1D1B681B6803F0D4
:1004C0000103002B00F07581B84B5B6803F00C034F
:1004D000042B0BD0B54B5B6803F00C03082B5FD1EA
:1004E000B24B5B6803F48033002B59D04FF40033D8
:1004F000C7F8CC30D7F8CC3093FAA3F3C7F8C8309C
:10050000D7F8C830B3FA83F35BB243F020035BB291
:10051000DBB25B09DBB2012B02D1A44B1B681BE0F1
:100520004FF40033C7F87031D7F8703193FAA3F362
:10053000C7F8C430D7F8C430B3FA83F35BB243F0E2
:1005400020035BB2DBB25B09DBB2022B02D1974B1B
:100550001B6A01E0954B5B6A4FF40032C7F86C21CF
:10056000D7F86C2192FAA2F2C7F8C020D7F8C020C1
:10057000B2FA82F252B242F0200252B2D2B202F089
:100580001F02D34003F00103002B00F011813B1D3B
:100590001B685B68002B40F00B81012300F09DBEBF
:1005A0003B1D1B685B68B3F5803F06D17F4A7F4BDC
:1005B0001B6843F48033136030E03B1D1B685B68AD
:1005C000002B0CD1794A794B1B6823F480331360DC
:1005D000764A764B1B6823F4802313601EE03B1D94
:1005E0001B685B68B3F5A02F0CD1704A6F4B1B687A
:1005F00043F4802313606D4A6C4B1B6843F48033D3
:1006000013600BE0694A694B1B6823F48033136065
:10061000664A664B1B6823F4802313603B1D1B68EE
:100620005B68002B60D0FFF7B1FDC7F88C010AE0D2
:10063000FFF7ACFD0246D7F88C31D31A642B02D9F0
:10064000032300F04ABE4FF40033C7F86831D7F8EF
:10065000683193FAA3F3C7F8BC30D7F8BC30B3FACB
:1006600083F35BB243F020035BB2DBB25B09DBB226
:10067000012B02D14D4B1B681BE04FF40033C7F830
:100680008831D7F8883193FAA3F3C7F8B830D7F890
:10069000B830B3FA83F35BB243F020035BB2DBB252
:1006A0005B09DBB2022B02D1404B1B6A01E03F4BDE
:1006B0005B6A4FF40032C7F88421D7F8842192FA9C
:1006C000A2F2C7F8B420D7F8B420B2FA82F252B23C
:1006D00042F0200252B2D2B202F01F02D34003F025
:1006E0000103002BA4D064E0FFF750FDC7F88C0194
:1006F0000AE0FFF74BFD0246D7F88C31D31A642B82
:1007000002D9032300F0E9BD4FF40033C7F880316C
:10071000D7F8803193FAA3F3C7F8B030D7F8B030E8
:10072000B3FA83F35BB243F020035BB2DBB25B0945
:10073000DBB2012B02D11D4B1B681BE04FF40033D1
:10074000C7F87C31D7F87C3193FAA3F3C7F8AC3003
:10075000D7F8AC30B3FA83F35BB243F020035BB25B
:10076000DBB25B09DBB2022B02D1104B1B6A01E04A
:100770000E4B5B6A4FF40032C7F87821D7F8782126
:1007800092FAA2F2C7F8A820D7F8A820B2FA82F20B
:1007900052B242F0200252B2D2B202F01F02D34053
:1007A00003F00103002BA4D103E000BF00100240BE
:1007B00000BF3B1D1B681B6803F00203002B00F009
:1007C0009881BC4B5B6803F00C03002B0BD0B94B3A
:1007D0005B6803F00C03082B74D1B64B5B6803F421
:1007E0008033002B6ED10223C7F87431D7F87431EF
:1007F00093FAA3F3C7F8A430D7F8A430B3FA83F37D
:100800005BB243F020035BB2DBB25B09DBB2012BCE
:1008100002D1A84B1B681AE00223C7F84031D7F871
:10082000403193FAA3F3C7F8A030D7F8A030B3FA59
:1008300083F35BB243F020035BB2DBB25B09DBB254
:10084000022B02D19B4B1B6A01E09A4B5B6A02228E
:10085000C7F83C21D7F83C2192FAA2F2C7F89C20B5
:10086000D7F89C20B2FA82F252B242F0200252B281
:10087000D2B202F01F02D34003F00103002B07D0D5
:100880003B1D1B681B69012B02D0012300F025BD15
:100890008848884B1B6823F0F8023B1D1B68596988
:1008A000F823C7F83831D7F8383193FAA3F3C7F8EB
:1008B0009830D7F89830B3FA83F301FA03F313436F
:1008C000036016E13B1D1B681B69002B00F0948040
:1008D0000123C7F83431D7F8343193FAA3F3C7F8BA
:1008E0009430D7F89430B3FA83F39B0003F1844338
:1008F00003F584031A4601231360FFF747FCC7F88A
:100900008C010AE0FFF742FC0246D7F88C31D31A7B
:10091000022B02D9032300F0E0BC0223C7F86431A4
:10092000D7F8643193FAA3F207F190031A6007F144
:1009300090031B68B3FA83F35BB243F020035BB20E
:10094000DBB25B09DBB2012B02D15A4B1B681CE006
:100950000223C7F86031D7F8603193FAA3F207F1A8
:100960008C031A6007F18C031B68B3FA83F35BB244
:1009700043F020035BB2DBB25B09DBB2022B02D196
:100980004C4B1B6A01E04B4B5B6A0222C7F85C21AF
:10099000D7F85C2192FAA2F107F18802116007F101
:1009A00088021268B2FA82F252B242F0200252B2C7
:1009B000D2B202F01F02D34003F00103002BA1D0FA
:1009C0003C4C3C4B1B6823F0F8023B1D1B685969EB
:1009D000F823C7F85831D7F8583193FAA3F007F144
:1009E0008403186007F184031B68B3FA83F301FAE8
:1009F00003F3134323607CE00123C7F85431D7F895
:100A0000543193FAA3F207F180031A6007F18003CF
:100A10001B68B3FA83F39B0003F1844303F584035B
:100A20001A4600231360FFF7B1FBC7F88C010AE0F8
:100A3000FFF7ACFB0246D7F88C31D31A022B02D950
:100A4000032300F04ABC0223C7F85031D7F85031D5
:100A500093FAA3F207F17C031A6007F17C031B6889
:100A6000B3FA83F35BB243F020035BB2DBB25B0902
:100A7000DBB2012B02D10F4B1B681FE00223C7F82A
:100A80004C31D7F84C3193FAA3F207F178031A608E
:100A900007F178031B68B3FA83F35BB243F02003DA
:100AA0005BB2DBB25B09DBB2022B05D1014B1B6AE7
:100AB00004E000BF00100240B74B5B6A0222C7F897
:100AC0004821D7F8482192FAA2F107F17402116087
:100AD00007F174021268B2FA82F252B242F02002B6
:100AE00052B2D2B202F01F02D34003F00103002B36
:100AF0009ED13B1D1B681B6803F00803002B00F010
:100B0000F9803B1D1B689B69002B7BD00123C7F834
:100B10004431D7F8443193FAA3F207F170031A6015
:100B200007F170031B68B3FA83F39B001A469B4BD3
:100B300013441A4601231360FFF728FBC7F88C0102
:100B400009E0FFF723FB0246D7F88C31D31A022BBA
:100B500001D90323C1E30223C7F83031D7F830317C
:100B600093FAA3F207F16C031A6007F16C031B6898
:100B7000B3FA83F35BB243F060035BB2DBB25B09B1
:100B8000DBB2012B02D1844B1B681CE00223C7F8A7
:100B90002C31D7F82C3193FAA3F207F168031A60CD
:100BA00007F168031B68B3FA83F35BB243F0600399
:100BB0005BB2DBB25B09DBB2022B02D1764B1B6A64
:100BC00001E0754B5B6A0222C7F82821D7F828217B
:100BD00092FAA2F107F16402116007F1640212684F
:100BE000B2FA82F252B242F0600252B2D2B202F0D3
:100BF0001F02D34003F00103002BA2D00120FFF716
:100C0000CFFA77E00123C7F82431D7F8243193FADB
:100C1000A3F207F160031A6007F160031B68B3FADF
:100C200083F39B001A465D4B13441A46002313605E
:100C3000FFF7ACFAC7F88C0109E0FFF7A7FA024604
:100C4000D7F88C31D31A022B01D9032345E30223B1
:100C5000C7F82031D7F8203193FAA3F207F15C03EB
:100C60001A6007F15C031B68B3FA83F35BB243F0CD
:100C700060035BB2DBB25B09DBB2012B02D1464BF6
:100C80001B681CE00223C7F81C31D7F81C3193FA0B
:100C9000A3F207F158031A6007F158031B68B3FA6F
:100CA00083F35BB243F060035BB2DBB25B09DBB2A0
:100CB000022B02D1384B1B6A01E0374B5B6A0222E0
:100CC000C7F81821D7F8182192FAA2F107F15402B7
:100CD000116007F154021268B2FA82F252B242F085
:100CE000600252B2D2B202F01F02D34003F00103FD
:100CF000002BA2D13B1D1B681B6803F00403002BD3
:100D000000F03C81244A244BDB6943F08053D361DB
:100D1000214BDB6903F0805207F108031A6007F1E9
:100D200008031B681E4A1E4B1B6843F48073136044
:100D3000FFF72CFAC7F88C0109E0FFF727FA024603
:100D4000D7F88C31D31A642B01D90323C5E2144B95
:100D50001B6803F48073002BEFD03B1D1B68DB681E
:100D6000012B06D10C4A0C4B1B6A43F001031362A2
:100D700036E03B1D1B68DB68002B13D1064A064B8F
:100D80001B6A23F001031362034A034B1B6A23F01F
:100D90000403136224E000BF0010024080044242BA
:100DA000007000403B1D1B68DB68052B0CD1AC4A72
:100DB000AB4B1B6A43F004031362A94AA84B1B6A9E
:100DC00043F0010313620BE0A54AA54B1B6A23F015
:100DD00001031362A24AA24B1B6A23F004031362AD
:100DE0003B1D1B68DB68002B64D0FFF7CFF9C7F809
:100DF0008C010BE0FFF7CAF90246D7F88C31D31A01
:100E000041F28832934201D9032366E20223C7F8F4
:100E10001431D7F8143193FAA3F207F150031A6092
:100E200007F150031B68B3FA83F35BB243F040034E
:100E30005BB2DBB25B09DBB2012B02D1884B1B68D2
:100E40001CE00223C7F81031D7F8103193FAA3F24F
:100E500007F14C031A6007F14C031B68B3FA83F3E4
:100E60005BB243F040035BB2DBB25B09DBB2022B47
:100E700002D17B4B1B6A01E0794B5B6A0222C7F807
:100E80000C21D7F80C2192FAA2F107F14802116067
:100E900007F148021268B2FA82F252B242F04002FE
:100EA00052B2D2B202F01F02D34003F00103002B72
:100EB000A0D063E0FFF76AF9C7F88C010BE0FFF7F9
:100EC00065F90246D7F88C31D31A41F28832934241
:100ED00001D9032301E20223C7F80831D7F808310A
:100EE00093FAA3F207F144031A6007F144031B6865
:100EF000B3FA83F35BB243F040035BB2DBB25B094E
:100F0000DBB2012B02D1564B1B681CE00223C7F851
:100F10000431D7F8043193FAA3F207F140031A60C1
:100F200007F140031B68B3FA83F35BB243F040035D
:100F30005BB2DBB25B09DBB2022B02D1484B1B6A0E
:100F400001E0474B5B6A0222C7F80021D7F8002175
:100F500092FAA2F107F13C02116007F13C0212681B
:100F6000B2FA82F252B242F0400252B2D2B202F06F
:100F70001F02D34003F00103002BA0D13B1D1B68CF
:100F8000DB69002B00F0A881354B5B6803F00C0394
:100F9000082B00F09F813B1D1B68DB69022B40F092
:100FA0001B814FF08073C7F8FC30D7F8FC3093FA00
:100FB000A3F207F138031A6007F138031B68B3FA8C
:100FC00083F39B0003F1844303F584031A46002353
:100FD0001360FFF7DBF8C7F88C0109E0FFF7D6F8DC
:100FE0000246D7F88C31D31A022B01D9032374E1BE
:100FF0004FF00073C7F8F830D7F8F83093FAA3F23F
:1010000007F134031A6007F134031B68B3FA83F362
:101010005BB243F020035BB2DBB25B09DBB2012BB6
:1010200002D10F4B1B681FE04FF00073C7F8F4307C
:10103000D7F8F43093FAA3F207F130031A6007F1FE
:1010400030031B68B3FA83F35BB243F020035BB257
:10105000DBB25B09DBB2022B04D1014B1B6A03E05C
:10106000001002409F4B5B6A4FF00072C7F8F020FF
:10107000D7F8F02092FAA2F107F12C02116007F1E3
:101080002C021268B2FA82F252B242F0200252B23C
:10109000D2B202F01F02D34003F00103002B9DD116
:1010A0003B1D1B681B6AB3F5803F09D18D498D4BF1
:1010B0005B6823F400323B1D1B689B6813434B6045
:1010C0008848884B5B6823F474123B1D1B68196ABF
:1010D0003B1D1B685B6A0B43134343604FF08073F7
:1010E000C7F8EC30D7F8EC3093FAA3F207F12803F5
:1010F0001A6007F128031B68B3FA83F39B0003F11E
:10110000844303F584031A4601231360FFF73EF876
:10111000C7F88C0109E0FFF739F80246D7F88C319F
:10112000D31A022B01D90323D7E04FF00073C7F87D
:10113000E830D7F8E83093FAA3F207F124031A60F5
:1011400007F124031B68B3FA83F35BB243F0200377
:101150005BB2DBB25B09DBB2012B02D1614B1B68D6
:101160001DE04FF00073C7F8E430D7F8E43093FA8D
:10117000A3F207F120031A6007F120031B68B3FAFA
:1011800083F35BB243F020035BB2DBB25B09DBB2FB
:10119000022B02D1534B1B6A01E0524B5B6A4FF0AA
:1011A0000072C7F8E020D7F8E02092FAA2F107F128
:1011B0001C02116007F11C021268B2FA82F252B2EC
:1011C00042F0200252B2D2B202F01F02D34003F02A
:1011D0000103002B9FD07FE04FF08073C7F8DC3015
:1011E000D7F8DC3093FAA3F207F118031A6007F17D
:1011F00018031B68B3FA83F39B0003F1844303F5E0
:1012000084031A4600231360FEF7C0FFC7F88C0161
:1012100009E0FEF7BBFF0246D7F88C31D31A022B48
:1012200001D9032359E04FF00073C7F8D830D7F83D
:10123000D83093FAA3F207F114031A6007F11403EC
:101240001B68B3FA83F35BB243F020035BB2DBB2FB
:101250005B09DBB2012B02D1224B1B681DE04FF072
:101260000073C7F8D430D7F8D43093FAA3F207F15B
:1012700010031A6007F110031B68B3FA83F35BB223
:1012800043F020035BB2DBB25B09DBB2022B02D17D
:10129000144B1B6A01E0134B5B6A4FF00072C7F8F6
:1012A000D020D7F8D02092FAA2F107F10C021160F9
:1012B00007F10C021268B2FA82F252B242F0200236
:1012C00052B2D2B202F01F02D34003F00103002B4E
:1012D0009FD101E0012300E00023184607F5CA77FB
:1012E000BD4690BD0010024080B598B000AF786058
:1012F00039600023FB65A54B1B6803F007023B68C0
:101300009A4210D2A149A14B1B6823F007023B6807
:1013100013430B609D4B1B6803F007023B689A4226
:1013200001D001238FE17B681B6803F00203002BCF
:1013300008D09749964B5B6823F0F0027B689B6866
:1013400013434B607B681B6803F00103002B00F024
:1013500027817B685B68012B46D14FF400337B63A8
:101360007B6B93FAA3F33B633B6BB3FA83F35BB200
:1013700043F020035BB2DBB25B09DBB2012B02D18D
:10138000834B1B6817E04FF40033BB65BB6D93FACA
:10139000A3F3FB62FB6AB3FA83F35BB243F020036F
:1013A0005BB2DBB25B09DBB2022B02D1784B1B6A6A
:1013B00001E0774B5B6A4FF400327A657A6D92FAFE
:1013C000A2F2BA62BA6AB2FA82F252B242F02002D1
:1013D00052B2D2B202F01F02D34003F00103002B3D
:1013E00040F08F8001232EE17B685B68022B45D1A2
:1013F0004FF000733B653B6D93FAA3F37B627B6A0E
:10140000B3FA83F35BB243F020035BB2DBB25B0958
:10141000DBB2012B02D15E4B1B6817E04FF000736B
:10142000FB64FB6C93FAA3F33B623B6AB3FA83F36E
:101430005BB243F020035BB2DBB25B09DBB2022B91
:1014400002D1534B1B6A01E0514B5B6A4FF00072B3
:10145000BA64BA6C92FAA2F2FA61FA69B2FA82F24A
:1014600052B242F0200252B2D2B202F01F02D34076
:1014700003F00103002B44D10123E4E002237B6449
:101480007B6C93FAA3F3BB61BB69B3FA83F35BB2E2
:1014900043F020035BB2DBB25B09DBB2012B02D16C
:1014A0003B4B1B6816E002233B643B6C93FAA3F3AF
:1014B0007B617B69B3FA83F35BB243F020035BB2D9
:1014C000DBB25B09DBB2022B02D1314B1B6A01E0BC
:1014D0002F4B5B6A0222FA63FA6B92FAA2F23A612C
:1014E0003A69B2FA82F252B242F0200252B2D2B259
:1014F00002F01F02D34003F00103002B01D10123AE
:10150000A1E02349224B5B6823F003027B685B6800
:1015100013434B60FEF73AFEF8657B685B68012B6E
:1015200012D10AE0FEF732FE0246FB6DD31A41F2F9
:101530008832934201D9032385E0154B5B6803F0A1
:101540000C03042BEED12BE07B685B68022B21D1CE
:101550000AE0FEF71BFE0246FB6DD31A41F2883209
:10156000934201D903236EE0094B5B6803F00C033F
:10157000082BEED114E0FEF709FE0246FB6DD31AEC
:1015800041F28832934205D903235CE000200240F7
:10159000001002402E4B5B6803F00C03002BEAD1D5
:1015A0002C4B1B6803F007023B689A4210D929496B
:1015B000284B1B6823F007023B6813430B60254B45
:1015C0001B6803F007023B689A4201D001233AE00E
:1015D0007B681B6803F00403002B08D01C491C4BDC
:1015E0005B6823F4E0627B68DB6813434B607B68D5
:1015F0001B6803F00803002B09D01549144B5B68E6
:1016000023F460527B681B69DB0013434B6000F0DE
:1016100027F801460E4B5B6803F0F002F023BB6332
:10162000BB6B93FAA3F3FB60FB68B3FA83F322FA74
:1016300003F3094AD35C21FA03F3084A136000203C
:10164000FEF77AFD002318466037BD4680BD00BF17
:101650000010024000200240E027000800000020A7
:1016600090B48EB000AF364B3C1D186859689A682C
:10167000DB680FC4334A3B4612881A800023FB62A2
:101680000023BB6200237B6300237B6200233B6358
:101690002D4B5B68FB62FB6A03F00C03042B02D04A
:1016A000082B03D043E0294B3B6343E0FB6A03F480
:1016B00070124FF47013FB61FB6993FAA3F3BB61E3
:1016C000BB69B3FA83F322FA03F307F13802134438
:1016D00013F8343C7B62FB6A03F48033002B1ED08A
:1016E000194B5B6803F400324FF400333B623B6AF2
:1016F00093FAA3F37B617B69B3FA83F322FA03F3D2
:1017000007F13802134413F8383CBB620F4ABB6A36
:10171000B2FBF3F37A6A02FB03F37B6304E07B6AB8
:101720000B4A02FB03F37B637B6B3B6302E0074BDB
:101730003B6300BF3B6B18463837BD4690BC7047D3
:10174000F8270008082800080010024000127A005C
:1017500000093D0080B400AF024B1B681846BD462F
:1017600080BC70470000002080B582B000AF114BF4
:101770007B60114B3B6007E03B681A1D3A607A685A
:10178000111D796012681A603B680C4A9342F3D3CA
:101790000B480C494FF000028842B8BF40F8042BB8
:1017A000FADBFEF74DFE00F013F800BF0837BD4628
:1017B00080BD00BF38280008000000200C00002079
:1017C0000C0000207800002080B400AFFEE700BFCE
:1017D00080B582B002AFFEF799FC00F033F800F05C
:1017E000BDF800F081F84FF47A7300930823114A92
:1017F0001149124800F080FC4FF47A7308220D4919
:101800000E4800F0EBFA0B4B5B78022B09D1C82095
:10181000FEF7C6FC01224FF40051094800F0B4FA6B
:10182000E1E7C820FEF7BCFC4FF40051044800F08B
:10183000C3FAD8E770000020040000201800002040
:101840000010014080B590B000AF0123BB614FF4A0
:101850008033FB6100233B620123BB6202237B6375
:101860004FF48033BB634FF4E013FB6307F11803BD
:101870001846FEF719FE0346002B03D0A121184895
:1018800000F0AEF80F237B600223BB608023FB6077
:1018900000233B6100237B613B1D01211846FFF7BC
:1018A00023FD0346002B03D0AF210D4800F098F82C
:1018B000FFF750FF02460B4BA3FB02239B09184680
:1018C000FEF78AFD0420FEF793FD002200214FF071
:1018D000FF30FEF765FD00BF4037BD4680BD00BF4D
:1018E0000C280008D34D621080B500AF184B194A80
:1018F0001A60174B4FF482725A60154B00229A609F
:10190000134B0022DA60124B00221A61104B0022A6
:101910005A610F4B4FF400729A610D4B0022DA614D
:101920000B4B00221A620A4B00225A62084B00221B
:101930009A62074B0A22DA62054800F057F803461C
:10194000002B03D0D021044800F04AF800BF80BD2E
:1019500018000020003001400C28000880B588B035
:1019600000AF1D4A1C4B9B6943F0100393611A4B57
:101970009B6903F01003FB60FB68174A164B9B69D9
:1019800043F020039361144B9B6903F02003BB6079
:10199000BB68114A104B9B6943F0040393610E4BE3
:1019A0009B6903F004037B607B6800224FF40051C5
:1019B0000A4800F0E9F94FF400533B6101237B61D1
:1019C0000223FB6107F110031946044800F07EF87A
:1019D00000BF2037BD4680BD00100240001001400E
:1019E00080B483B000AF78603960FEE780B582B024
:1019F00000AF78607B68002B01D1012356E07B6843
:101A000093F85130DBB2002B02D1786800F0B0FEC1
:101A10007B68022283F851207B681B687A68126811
:101A2000126822F040021A607B681B687A6851686D
:101A30007A68926811437A68D26811437A681269A9
:101A400011437A68526911437A68926902F400720C
:101A500011437A68D26911437A68126A11437A682D
:101A6000926A0A431A607B681B687A689269120C52
:101A700002F004017A68526A0A435A607B681B6864
:101A80007A68D26A1A617B681B687A681268D269C0
:101A900022F40062DA61074B00221A707B68002290
:101AA0005A657B68012283F85120002318460837C5
:101AB000BD4680BD1000002080B483B000AF7860C8
:101AC000012318460C37BD4680BC704780B48BB0EC
:101AD00000AF786039600023FB610023BB61002305
:101AE0007B6100233B6200233B6100237B6227E193
:101AF00001227B6A02FA03F3FB613B681A68FB6907
:101B00001340BB61BA69FB699A4240F016813B6899
:101B10005B68122B34D0122B0DD8022B2BD0022B4A
:101B200004D8002B31D0012B1CD048E0032B43D02C
:101B3000112B1BD043E0874A934226D0854A93421B
:101B400006D8854A934220D0844A93421DD036E07D
:101B5000834A934219D0834A934216D0824A9342D1
:101B600013D02CE03B68DB683B6228E03B68DB6815
:101B700004333B6223E03B68DB6808333B621EE0D2
:101B80003B68DB680C333B6219E03B689B68002BC9
:101B900002D104233B6212E03B689B68012B05D114
:101BA00008233B627B68FA691A6108E008233B62FC
:101BB0007B68FA695A6102E000233B6200BFBB699F
:101BC000FF2B01D87B6801E07B680433FB60BB69B5
:101BD000FF2B02D87B6A9B0002E07B6A083B9B00DC
:101BE0003B61FB681A680F213B6901FA03F3DB4391
:101BF0001A40396A3B6901FA03F31A43FB681A6019
:101C00003B685B6803F08053002B00F09680574AD6
:101C1000564B9B6943F001039361544B9B6903F05E
:101C20000103BB60BB68524A7B6A9B08023352F8CF
:101C300023307B617B6A03F003039B000F2202FACF
:101C400003F3DB437A6913407B617B68494A934223
:101C500013D07B68484A93420DD07B68474A934231
:101C600007D07B68464A934201D1032306E0042350
:101C700004E0022302E0012300E000237A6A02F07C
:101C80000302920093407A6913437B6138497B6A6F
:101C90009B0802337A6941F823203B685B6803F4B0
:101CA0008033002B06D03749364B1A68BB69134383
:101CB0000B6006E03349334B1A68BB69DB431340C2
:101CC0000B603B685B6803F40033002B06D02D49A2
:101CD0002C4B5A68BB6913434B6006E02949294BDA
:101CE0005A68BB69DB4313404B603B685B6803F495
:101CF0008013002B06D02349224B9A68BB691343FB
:101D00008B6006E01F491F4B9A68BB69DB43134099
:101D10008B603B685B6803F40013002B06D0194905
:101D2000184BDA68BB691343CB6006E01549154BC5
:101D3000DA68BB69DB431340CB607B6A01337B62AB
:101D40007B6A0F2B7FF6D4AE00BF2C37BD4680BC1C
:101D5000704700BF00002110000011100000121099
:101D6000000031100000321000002210001002406C
:101D70000000014000080140000C0140001001403B
:101D8000001401400004014080B483B000AF7860CB
:101D90000B467B8013467B707B78002B03D07A88C0
:101DA0007B681A6103E07B881A047B681A6100BFB4
:101DB0000C37BD4680BC704780B483B000AF7860FC
:101DC0000B467B807B68DA687B885A407B68DA60E8
:101DD00000BF0C37BD4680BC704700BF80B588B0DF
:101DE00002AFF860B9603B601346FB800023FB82C2
:101DF000FB6893F85130DBB2012B40F07781BB6870
:101E0000002B02D0FB88002B01D101236FE1FB687E
:101E100093F85030012B01D1022368E1FB680122C5
:101E200083F85020FB68222283F85120FB680022AF
:101E30005A65FB68BA689A63FB68FA889A87FB68F8
:101E4000FA88DA87FB6800229A64FB680022DA6469
:101E5000FB6800221A63FB6800229A86FB68002256
:101E6000DA86FB689B68B3F5004F07D1FB681B68F7
:101E7000FA681268126822F480421A60FB689B6A52
:101E8000B3F5005F0FD1FB681B68FA68126812682F
:101E900022F400521A60FB681B68FA681268126824
:101EA00042F400521A60FB685B68B3F5827F12D17E
:101EB000FB689B68002B0ED1FB68002283F8502042
:101EC000FA883B6800931346BA68B968F86800F06E
:101ED00013F903460BE1FB681B681B6803F0400322
:101EE000002B07D1FB681B68FA681268126842F081
:101EF00040021A60FB68DB68002B4AD11AE03B689D
:101F000000220121F86800F043FB0346002B01D0BA
:101F10000323ECE0FB689B6B591CFA689163FA6839
:101F20001268D268D2B21A70FB68DB8F013B9AB29A
:101F3000FB68DA87FB68DB8F012BE0D8FB689B6AC4
:101F4000B3F5005F36D1FB681B68FA681268126847
:101F500042F480521A602DE03B6800220121F868AB
:101F600000F016FB0346002B01D00323BFE0FB6803
:101F70009B6BFA681268D26892B21A80FB689B6BFE
:101F80009A1CFB689A63FB68DB8F013B9AB2FB6883
:101F9000DA87FB68DB8F012BDED8FB689B6AB3F521
:101FA000005F07D1FB681B68FA681268126842F488
:101FB00080521A603B6800220121F86800F0E8FABC
:101FC0000346002B01D0032391E0FB68DB68002B64
:101FD0000AD1FB689B6B591CFA689163FA68126816
:101FE000D268D2B21A700BE0FB689B6BFA68126879
:101FF000D26892B21A80FB689B6B9A1CFB689A634A
:10200000FB68DB8F013B9AB2FB68DA87FB689B6A4F
:10201000B3F5005F16D13B6800220121F86800F09B
:10202000B7FA0346002B07D0FB685B6D43F0020252
:10203000FB685A6503235AE0FB681B68DB689BB2A8
:10204000FB82FB8AFB685B68B3F5827F11D1FB687A
:102050009B68B3F5004F04D0FB689B68B3F5806FB5
:1020600007D1FB681B68FA681268126822F0400208
:102070001A60FB68012283F85120FB689B6AB3F564
:10208000005F2DD1FB681B689B6803F01003002BD9
:1020900026D0F868FFF710FD0346012B1BD1FB6823
:1020A0005B6D43F00202FB685A65FB681B68FA68C7
:1020B0001268126822F400521A60FB681B68FA6802
:1020C0001268126842F400521A60FB68002283F81A
:1020D000502001230BE0FB681B686FF010029A6030
:1020E000FB68002283F85020002300E002231846FA
:1020F0001837BD4680BD00BF80B586B000AFF86020
:10210000B9607A607B800023FB82FB6893F85130D2
:10211000DBB2012B06D0FB6893F85130DBB2222BE7
:1021200040F03182BB68002B05D07B68002B02D0C9
:102130007B88002B01D1012326E2FB6893F8503005
:10214000012B01D102231FE2FB68012283F85020FA
:10215000FB6893F85130DBB2012B03D1FB683222CC
:1021600083F85120FB6800225A65FB687A689A63FD
:10217000FB687A889A87FB687A88DA87FB68BA688E
:102180001A63FB687A889A86FB687A88DA86FB6825
:1021900000229A64FB680022DA64FB689B6AB3F54C
:1021A000005F0FD1FB681B68FA681268126822F49E
:1021B00000521A60FB681B68FA681268126842F4E1
:1021C00000521A60FB681B681B6803F04003002B79
:1021D00007D1FB681B68FA681268126842F0400277
:1021E0001A60FB68DB68B3F5006F40F0BE80FB68E7
:1021F0005B68002B08D0FB685B68B3F5827F14D165
:10220000FB68DB8E012B10D1FB681B68FA68126B30
:102210001288DA60FB681B6B9A1CFB681A63FB6808
:10222000DB8E013B9AB2FB68DA86FB68DB8E002B03
:1022300074D1FB689B6AB3F5005F07D1FB681B682C
:10224000FA681268126842F480521A603B6A0022EF
:102250000121F86800F09CF90346002B01D003230C
:1022600092E1FB689B6BFA681268D26892B21A809E
:10227000FB689B6B9A1CFB689A63FB68DB8F013BD6
:102280009AB2FB68DA871FE13B6A00220221F868F4
:1022900000F07EF90346002B01D0032374E1FB68B4
:1022A0001B68FA68126B1288DA60FB681B6B9A1C59
:1022B000FB681A63FB68DB8E013B9AB2FB68DA8627
:1022C000FB68DB8E002B0CD1FB689B6AB3F5005FCB
:1022D00007D1FB681B68FA681268126842F48052E2
:1022E0001A603B6A00220121F86800F051F90346A8
:1022F000002B01D0032347E1FB689B6BFA6812684F
:10230000D26892B21A80FB689B6B9A1CFB689A6336
:10231000FB68DB8F013B9AB2FB68DA87FB68DB8ED8
:10232000002BB1D1FB685B68002B40F0CD803B6A8D
:1023300000220121F86800F02BF90346002B01D0A0
:10234000032321E1FB689B6BFA681268D26892B2A2
:102350001A80FB689B6B9A1CFB689A63FB68DB8F97
:10236000013B9AB2FB68DA87AEE0FB685B68002B42
:1023700008D0FB685B68B3F5827F12D1FB68DB8E07
:10238000012B0ED1FB681A68FB681B6B581CF9689F
:1023900008631B78D360FB68DB8E013B9AB2FB6855
:1023A000DA86FB68DB8E002B6BD1FB689B6AB3F58A
:1023B000005F07D1FB681B68FA681268126842F474
:1023C00080521A603B6A00220121F86800F0E0F8B0
:1023D0000346002B01D00323D6E0FB689B6BFA6811
:1023E0001268D268D2B21A70FB68DB8F013B9AB2D6
:1023F000FB68DA8768E03B6A00220221F86800F097
:10240000C7F80346002B01D00323BDE0FB681A6820
:10241000FB681B6B581CF96808631B78D360FB686A
:10242000DB8E013B9AB2FB68DA86FB68DB8E002B01
:102430000CD1FB689B6AB3F5005F07D1FB681B6892
:10244000FA681268126842F480521A603B6A0022ED
:102450000121F86800F09CF80346002B01D003230B
:1024600092E0FB689B6B591CFA689163FA681268EA
:10247000D268D2B21A70FB68DB8F013B9AB2FB685C
:10248000DA87FB68DB8E002BB5D1FB685B68002B1D
:102490001AD13B6A00220121F86800F079F803465E
:1024A000002B01D003236FE0FB689B6B591CFA687B
:1024B0009163FA681268D268D2B21A70FB68DB8F37
:1024C000013B9AB2FB68DA87FB689B6AB3F5005F51
:1024D00016D13B6A00220121F86800F059F8034642
:1024E000002B07D0FB685B6D43F00202FB685A6566
:1024F000032349E0FB681B68DB689BB2FB82FB8A15
:102500003B6A01228021F86800F042F80346002B64
:1025100007D0FB685B6D43F01002FB685A6503232C
:1025200032E0FB68012283F85120FB689B6AB3F517
:10253000005F22D1FB681B689B6803F01003002B2F
:102540001BD0FB685B6D43F00202FB685A65FB68B9
:102550001B68FA681268126822F400521A60FB685D
:102560001B68FA681268126842F400521A60FB682D
:10257000002283F85020012306E0FB68002283F844
:102580005020002300E0022318461837BD4680BDC6
:1025900080B586B000AFF860B9603B601346FB7150
:1025A00000237B61FDF7F2FD7861FB79002B40F0A1
:1025B00086803DE03B68B3F1FF3F39D03B68002B9C
:1025C00007D0FDF7E3FD02467B69D21A3B689A42C9
:1025D0002ED9FB681B68FA681268526822F0E00284
:1025E0005A60FB681B68FA681268126822F04002A1
:1025F0001A60FB689B6AB3F5005F0FD1FB681B682C
:10260000FA681268126822F400521A60FB681B68AC
:10261000FA681268126842F400521A60FB680122DC
:1026200083F85120FB68002283F8502003234FE0F9
:10263000FB681B689A68BB681A40BB689A42B9D1AC
:1026400045E03B68B3F1FF3F39D03B68002B07D032
:10265000FDF79CFD02467B69D21A3B689A422ED94F
:10266000FB681B68FA681268526822F0E0025A6040
:10267000FB681B68FA681268126822F040021A6050
:10268000FB689B6AB3F5005F0FD1FB681B68FA68B3
:102690001268126822F400521A60FB681B68FA681C
:1026A0001268126842F400521A60FB68012283F833
:1026B0005120FB68002283F85020032308E0FB68C8
:1026C0001B689A68BB681A40BB689A42B9D000235D
:1026D00018461837BD4680BD80B582B000AF224A8B
:1026E000214B9B6943F0010393611F4B9B6903F0EE
:1026F00001037B607B680320FDF746FE002200217A
:102700006FF00B00FDF74CFE002200216FF00A0075
:10271000FDF746FE002200216FF00900FDF740FEA4
:10272000002200216FF00400FDF73AFE0022002194
:102730006FF00300FDF734FE002200216FF001006E
:10274000FDF72EFE002200214FF0FF30FDF728FE9E
:10275000064A064B5B6823F0E06343F00073536066
:1027600000BF0837BD4680BD001002400000014098
:1027700080B588B000AF78607B681B68154A9342CB
:1027800023D1154A144B9B6943F480539361124B38
:102790009B6903F48053FB60FB68A0233B61022329
:1027A0007B610323FB6107F1100319460B48FFF718
:1027B0008DF940233B6100237B610023BB6107F15E
:1027C000100319460548FFF781F900BF2037BD46C1
:1027D00080BD00BF003001400010024000080140F1
:1027E00000000000000000000102030406070809C1
:1027F00000000000010203040203040506070809A3
:102800000A0B0C0D0E0F101001020000433A5C532E
:10281000544D5C70726F6A656374735C436F6F4391
:102820006F785C5350495F66697273745C5372636E
:082830005C6D61696E2E63000E
:0C28380000A24A04010203040506070880
:0400000508000000EF
:00000001FF
